:020000040800F2
:10000000004000204105000849050008F19F00005C
:100010004D0500084F0500085105000800000000CC
:100020000000000000000000000000005305000870
:100030005505000800000000570500085905000894
:100040005B0500085B0500085B0500085B05000810
:100050005B0500085B0500085B0500085B05000800
:100060005B0500085B0500085B050008694800089F
:100070005B0500085B0500085B0500085B050008E0
:100080005B0500085B050008F53400085B05000807
:100090005B0500085B0500085B0500085B050008C0
:1000A0005B0500085B0500085B0500085B050008B0
:1000B0005B0500085B0500085B0500085B050008A0
:1000C0005B0500085B0500085B0500085B05000890
:1000D0005B0500085B0500085B0500085B05000880
:1000E0005B0500085B050008000000005B050008D8
:1000F0005B0500085B0500085B0500085B05000860
:100100005B0500085B0500085B05000899CC00084A
:100110005B0500085B05000815A200005B050008F0
:100120005B0500085B0500085B0500085B0500082F
:100130005B0500085B0500085B0500085B0500081F
:1001400000000000000000000000000000000000AF
:100150005B0500085B0500085B0500085B050008FF
:100160005B0500085B0500085B0500085B050008EF
:100170005B0500085B0500085B0500080000000047
:100180005B0500085B0500085B0500085B050008CF
:100190005B0500085B0500085B0500085B050008BF
:1001A0005B0500085B0500085B0500085B050008AF
:1001B0005B0500085B0500085B0500085B0500089F
:1001C0005B0500085B0500085B0500085B0500088F
:1001D0005B0500085B0500085B0500085B0500087F
:1001E0005B0500085B0500085B0500085B0500086F
:1001F0005B0500085B050008B54200085B050008C8
:10020000B14600085B0500085B0500085B050008B7
:100210005B0500085B0500085B0500085B0500083E
:100220005B0500085B0500085B0500080000000096
:100230005B0500085B050008000000005B05000886
:100240005B0500085B0500085B0500085B0500080E
:100250005B0500085B0500085B0500085B050008FE
:100260005B0500085B0500085B0500085B050008EE
:100270005B0500085B0500085B0500080000000046
:100280005B050008000000005B050008000000009E
:10029000000000005B05000800F002F800F0C4F860
:1002A0000AA090E8000C82448344AAF10107DA45D1
:1002B00001D100F0B9F8AFF2090EBAE80F0013F05F
:1002C000010F18BFFB1A43F001031847888801008B
:1002D000E888010010F8013B0A4413F0030408BF4A
:1002E00010F8014B1D1108BF10F8015B641E05D00A
:1002F00010F8016B641E01F8016BF9D1002D15D0C7
:1003000010F8014B03F00C030C2BA1EB04040ABF03
:1003100010F8013BA4EB8314A4EB032405F10103C3
:1003200014F8016B5B1E01F8016BF9D5914238BFDF
:1003300010F8013BD1D37047103A24BF78C878C178
:10034000FAD8520724BF30C830C144BF04680C60DB
:10035000704700000023002400250026103A28BF23
:1003600078C1FBD8520728BF30C148BF0B60704727
:100370006E2900F0B384702900F00B86662916F010
:10038000B987652916F0B687672916F0B387612902
:1003900016F0B28703681B0A28BF41F08001692963
:1003A00000F06084642900F05D84752900F05A84AF
:1003B0006F2900F09985782900F0D785E92900F0A8
:1003C0003385E42900F03085F52900F02D85EF29EB
:1003D00000F09685F82900F0D6850368DB0928BF70
:1003E00041F08001632900F0B484732900F0B984DE
:1003F000E32901F0B384F32901F0B88400207047A9
:100400001FB516F0F7FE01F065F80400002000218A
:1004100016F07EFE401C60600020002116F062FE97
:10042000E0601FBD10B510BDDFF80CD0FFF7E8FF8E
:100430000BF05AFC02F058F90040002003B4FFF71B
:10044000F1FF03BC02F06CF940BA704740BA704744
:1004500040BA704740BA704740BA704740BA7047D8
:1004600040BA704740BA704740BA704740BA7047C8
:1004700040BA704740BA704740BA704740BA7047B8
:1004800040BA704740BA704740BA704740BA7047A8
:1004900040BA704740BA704740BA704740BA704798
:1004A00040BA704740BA704740BA704740BA704788
:1004B00040BA704740BA704740BA704740BA704778
:1004C00040BA7047C0BA7047C0BA7047C0BA7047E8
:1004D000C0BA7047C0BA7047C0BA7047C0BA704758
:1004E000C0BA7047C0BA7047C0BA7047C0BA704748
:1004F000C0BA7047C0BA7047C0BA7047C0BA704738
:10050000C0BA7047C0BA7047C0BA7047C0BA704727
:10051000C0BA7047C0BA7047C0BA7047C0BA704717
:10052000C0BA7047C0BA7047C0BA7047C0BA704707
:10053000C0BA7047C0BA7047C0BA7047C0BA7047F7
:100540000948804709480047FEE7FEE7FEE7FEE767
:10055000FEE7FEE7FEE7FEE7FEE7FEE704480549A3
:10056000054A064B704700000D1F0108990200085C
:10057000009000200040002000CF0020000000205C
:100580001CB50C46064B7B4469460090204600F0A3
:10059000BEFB04460020694600F0CCFB20461CBD93
:1005A000AB0700000FB41CB5084B06AA7B44694694
:1005B0000090059800F0ABFB04460020694600F06F
:1005C000B9FB20461CBC5DF814FB00008507000049
:1005D00070B5044685690068C10601D5302600E083
:1005E0002026C00707D070BDD4E9012130469047CE
:1005F000206A401C20626D1EF6D570BD70B50446A1
:1006000085690078C00707D170BDD4E90121202099
:100610009047206A401C20626D1EF6D570BD70B5F3
:100620000C460546012A05D02878800600D5EA69DF
:10063000002302E0012305E05B1C934202D2E05C50
:100640000028F9D1A869E618C01AA861286A1844D8
:1006500028622846FFF7BCFF04E0D5E9012114F821
:10066000010B9047B442F8D32846FFF7C7FF70BD8F
:100670002DE9F05F894604464FF0000ADFF874B1B7
:10068000FB44C0F820A02046E1688847002874D0C9
:10069000252806D0D4E901219047206A401C206219
:1006A000F1E700265F462046E16888472028054696
:1006B00007DB312D05D2781910F8200C08B106435C
:1006C000F1E7B00701D526F00406C4F81CA0002706
:1006D000C4F818A02A2D09D0284616F085F938B399
:1006E00004EB8708303DC8F8185019E059F8041B8E
:1006F000204604EB87029161E1688847012F054697
:1007000018D1E069002820DA26F020061DE0D8F88C
:10071000180000EB800005EB40003038C8F81800E6
:100720002046E1688847054616F05EF90028EED1BC
:10073000012F0AD02E2D08D12046E16888477F1C62
:100740000546022F46F02006C4DBA069002803DA24
:10075000404246F00106A061F00701D026F01006E5
:100760006C2D0BD0682D09D04C2D39D06A2D35D089
:10077000742D35D07A2D33D016E038E0E1682F465D
:1007800020468847B842054609D16C2F26D04FF441
:100790008060E168064320468847054604E06C2FE8
:1007A0001AD04FF4807006430DB3A5F1410019280B
:1007B00002D8203546F400664A462946204626607F
:1007C0004E46FFF7D5FD80B101280BD0F61D26F06F
:1007D000070000F1080956E74020E4E78020D8E749
:1007E0000020D6E706F104094DE7284652E7206AC3
:1007F000BDE8F09FBC7801000FB400B58DB010A922
:10080000099000910B904FF0FF300A9000200C905F
:10081000064878440690064878446A4607900F993F
:1008200009A800F027FE0DB05DF814FB7F0C000056
:10083000970C00002DE9FF5F1D464FF0FF3B9146EE
:100840004FF000085F46D5E90146A96901987F1C71
:100850008847296A824688470028F6D1BAF1FF3FC7
:100860000CD0002E24F4C06419DD600614D5BAF152
:100870002B0F09D0BAF12D0F0ED103E0584604B06A
:10088000BDE8F09F44F48064A96901987F1C884703
:10089000761E8246002E02DDBAF1300F03D0B9F188
:1008A000000F26D032E0A969761E01987F1C44F41F
:1008B00000748847002E824605DDBAF1780F06D015
:1008C000BAF1580F03D0B9F1000F10D01EE0B9F102
:1008D000000F02D0B9F1100F18D1A969761E019846
:1008E0007F1C24F4007488478246102002E0082010
:1008F00000E00A20814609E0A96908FB0908761E84
:1009000001987F1C44F4007488478246002E05DD60
:100910004946504600F048FB0028EDDAE9690198A5
:100920008847A00502D46FF00100A8E7E00725D1B1
:10093000600613D5600502D5C8F1000000E040460E
:1009400029680A1D2A600968220501D5087015E08A
:10095000220701D5088011E008600FE02868011D1A
:1009600029600068210502D580F8008006E0210793
:1009700002D5A0F8008001E0C0F8008038467EE78C
:100980002DE9FF5F4FF000089946144646469169ED
:10099000D2E901A7DDF838B001988847054659EA41
:1009A0000B0005D009E0A1690198761C884705462F
:1009B000216A284688470028F5D1681C03D05FEAE1
:1009C000CA7005D015E04FF0FF3004B0BDE8F09FCD
:1009D0002068011D2160D0F800800AE05FEACA703B
:1009E00001D108F8015BA169761C01987F1E884738
:1009F0000546002F1ADD681C18D0B9F1000F0DD084
:100A0000E81705EBD060421120F01F0059F82210C2
:100A10002A1A012090400142E0D107E0BBF1000F0B
:100A2000DCD12846216A88470028D7D0E16901989F
:100A30008847BBF1000F07D1002E05DD5FEACA70C1
:100A400002D1002188F80010A068B84203DDBBF194
:100A5000000F03D017B16FF00100B6E73046B4E7DE
:100A600030B505460B462A4613F8014B12F8010B28
:100A700008B1A042F8D01CB1002802D06D1CF1E7EB
:100A8000284630BD40EA0103024630B59B0710D12D
:100A90004FF0013400E008C208C91D1B9D4315EA50
:100AA000C41FF8D013F0FF0102F8011B0DD01B0A80
:100AB000F8E711F8013B002B02F8013B05D011F8D3
:100AC000013B002B02F8013BF3D130BD032A40F279
:100AD000308010F0030C00F0158011F8013BBCF1E0
:100AE000020F624498BF11F801CB00F8013B38BFF8
:100AF00011F8013BA2F1040298BF00F801CB38BF06
:100B000000F8013B11F0030300F02580083AC0F023
:100B1000088051F8043B083A51F804CBA0E80810CB
:100B2000F5E7121D5CBF51F8043B40F8043BAFF3FE
:100B30000080D20724BF11F8013B11F801CB48BF58
:100B400011F8012B24BF00F8013B00F801CB48BF8E
:100B500000F8012B704710B5203AC0F00B80B1E8C7
:100B60001850203AA0E81850B1E81850A0E81850E2
:100B7000BFF4F5AF5FEA027C24BFB1E81850A0E8EB
:100B8000185044BF18C918C0BDE810405FEA827C05
:100B900024BF51F8043B40F8043B08BF7047D2071C
:100BA00028BF31F8023B48BF11F8012B28BF20F8BD
:100BB000023B48BF00F8012B704700004FF0013C9A
:100BC00050F8042B51F8043B9A4215D1A2EB0C03C8
:100BD000934313EACC130BD150F8042B51F8043B88
:100BE0009A4209D1A2EB0C03934313EACC13E7D04A
:100BF0004FF00000704700BFD01A01BAB1FA81F17E
:100C000001F0180122FA01F0CB40C1F12001DBB262
:100C1000C0B2C01A2CFA01F3D11A914311EAC311E0
:100C2000E6D1704770477047704710B500F056FC2A
:100C3000006810BD10B5044600F050FC046010BD03
:100C400009684A0501D540B27047C905FCD500B214
:100C5000704709684A0501D5C0B27047C905FCD57F
:100C600080B270472DE9F0410646002410687529CE
:100C7000314616A510D0FFF7E3FF002802DA404204
:100C800013A507E031688A0701D512A502E04907DC
:100C900004D511A5012401E0FFF7DBFF00210A22A2
:100CA00006F1240709E0B0FBF2FCB0FBF2F302FB13
:100CB0001C00303078541846491C0028F3D12346D4
:100CC0002A463046BDE8F04100F05ABC0000000062
:100CD0002D0000002B0000002000000011680268B9
:100CE000006A530501D508700AE0D30501D50880D4
:100CF00006E0130603D5C217C1E9000200E0086050
:100D00000120704701694A1C02610878704700B5EC
:100D10008FB0CDE901310021059105497944CDE934
:100D2000031011466846FFF7A3FC0FB000BD00009A
:100D3000E5FFFFFF0A6802F8010B0A60704710B573
:100D4000436913B1AFF3008001E0FFF768FC0120B5
:100D500010BD127800F124010A7000224A700122AD
:100D6000EDE711684FF0FF32E9E700002DE9FF5F82
:100D700015468A460446DFF8AC80F8440027D8E9D7
:100D800000103E46CDE9001010E03AF816106A4611
:100D900002A801F017FA411C07D02178890603D573
:100DA000E269391891420DD80744761C20788006F4
:100DB00002D5E069B84205DDAE42E6DB3AF816003E
:100DC0000028E2D1A069C01BA0612046FFF700FC0B
:100DD000D8E90010CDE90010002017E03AF818100B
:100DE0006A4602A801F0EEF9B0F1FF3F81460BD050
:100DF00000250DF1080B05E0D4E901211BF80500E1
:100E000090476D1C4D45F7D308F10100B042804674
:100E1000E4DB206A384420622046FFF7EFFBBDE8A0
:100E2000FF9F0000327201002DE9F0418046D21D83
:100E300022F007020025D2E90002F52915A614D0F8
:100E4000011E72F1000106DA0023D0EB030063EB10
:100E5000020211A608E0D8F800108B0701D50FA6F2
:100E600002E0490701D50EA601251146002408F12C
:100E7000240704E000F036FB30323A55641C50EA97
:100E80000102F7D12B46324621464046BDE8F041EB
:100E900000F076BB000000002D0000002B000000D9
:100EA0002000000030B4002100F1240408E002F02A
:100EB0000705D208303542EA4372DB086554491C05
:100EC00052EA0305F3D10468002310A2250708D5D0
:100ED00004F020040C4304D0C46901230CA2641E56
:100EE000C46130BC00F04CBB10B50446214610680C
:100EF000FFF7AFFE02462046BDE810400023D1E7D1
:100F0000D21D22F00701D1E90023CBE70000000049
:100F100030000000F0B40D460188090502D5214CCF
:100F20007C4402E01F4C7C440E34002100F1240676
:100F300008E002F00F071209E75D42EA03721B099D
:100F40007754491C52EA0307F3D1027800231207B1
:100F500004D5702D06D009B1022311342246F0BC0D
:100F600000F00EBB01231034F8E770B504460D46BF
:100F700021461068FFF76DFE024629462046BDE86F
:100F800070400023C6E7D21D22F00703D3E90023F7
:100F9000C0E70368126843F0200303600823C361BD
:100FA0000023B7E7947001003A2800D2303820F0CF
:100FB0002002412A01D3A2F13700884201D34FF029
:100FC000FF3070472DE9FF4F064689B00878FF28AB
:100FD00006D0491C2D2805D000244FF0000908E058
:100FE00000200CE00124F8E709EB8903491C00EB21
:100FF00043090878FF28F7D114B1C9F100008146F0
:10100000107800252C46AA4629462D2801D02B28E9
:1010100004D1521C2D2813D0002082468B46107814
:10102000FF280FD04FF0000C0A21521CA5FB0178BD
:1010300004FB018105FB0C11C5194BEB0104EEE724
:101040000120EAE7002108464FF00000BAF1000F46
:1010500002D000EB80004008C0F38158B8F1010FC6
:1010600001DD4FF0FF380C9809EB000755EA04004A
:1010700009D04FF0020917F5FA7F0BDA4FEACA7070
:10108000C6E900B012E04FEACA70C6E900B00DB080
:10109000BDE8F08FB7F5FA7F0DDDF0487844D0E970
:1010A0000010C6E9001040EACA70706000F016FA3D
:1010B000C0F80090EBE7391E02DAC8F1000200E048
:1010C000424600DA794206A801F00EF806AB93E832
:1010D000070003AB83E8070044F23E005BEA04012B
:1010E0000090584604D144F21E012C465D46009102
:1010F000210C0904014306D10099240444EA154453
:101100002D041039009104F07F41014306D100996C
:10111000240244EA15642D020839009104F070415C
:10112000014306D10099240144EA15742D01091FD9
:10113000009104F04041014306D10099A40044EA23
:101140009574AD00891E009104F00041084304D15C
:1011500000986D196441401E009042466846002F79
:10116000CDE9014503A902DD01F0B9FD01E001F07F
:101170008EFDBAF1000F04460D4601D084F0004404
:1011800040F2FF7724F00040284303D0C4F30A5014
:10119000B84212D100F0A2F9C0F80090C4F30A508E
:1011A000B8420AD1AE487844D0E90010C6E9001030
:1011B00004F000410843706069E7C6E9005466E73F
:1011C0002DE9FF4F1F464FF0000A4FF0FF3845460C
:1011D00091B0D7E90146CDF83CA000F07BF9C0689A
:1011E0000168405C1090B96912986D1C8847396A93
:1011F000814688470028F6D1B9F1FF3F0AD0002E7A
:1012000024F4D06411DDB9F12B0F08D0B9F12D0F02
:101210000BD102E0404615B03AE744F48064B96966
:1012200012986D1C8847761E8146600504A901D579
:101230002D2000E02B20002E01F1010B0DF13008D4
:101240008DF810003FDDB9F1690F08D0B9F1490FF1
:1012500005D0B9F16E0F02D0B9F14E0F1CD13B464B
:1012600001A8009580E85002DDE912126FF002003B
:1012700016F0A8F8C11CCED10EE0B96912986D1C09
:10128000884781461398761E44F4007405600F98D1
:10129000401C002E0F9016DDB9F1300FEDD0B9F1E2
:1012A000780F02D0B9F1580F0DD10F9801280AD14B
:1012B0003B46CDE90054DDE91212001F029616F0FC
:1012C0007FF8C11CA7D1109989453ED144F0800414
:1012D00006E01399681CAAF1010A44F4007408603E
:1012E000B9696D1C1298761E884730288146F0D067
:1012F0002BE01099894505D1200603D4761E44F0D1
:10130000800418E0484615F06FFB08B3761E0DF117
:1013100023018B4544F4007408D2A9F130000BF886
:10132000010B200607D5AAF1010003E0200602D434
:101330000AF101008246A00502D51399681C0860D5
:10134000B96912986D1C88478146002ED1DC53E0A4
:10135000002E51DDB9F1650F02D0B9F1450F4BD127
:10136000A00549D5B9696D1C1298761E24F4407405
:101370008847002E81460CDD2B2804D0B9F12D0FB3
:1013800007D144F48074B96912986D1C8847761EA1
:101390008146E00501D52D2100E02B2108F8011B35
:1013A000CDF8008021E0761E0DF13901884544F426
:1013B00000740CD2A9F1300010F0FF0088F8000092
:1013C00002D10099884509D908F1010806E0E00535
:1013D00001D5244801E042F20F708246B9691298A3
:1013E0006D1C8847814613980560002E04DD484631
:1013F00015F0FAFA0028D6D1F96912988847FF202B
:1014000053468BF8000088F8000000200A900B90EB
:1014100004AA0CA90AA8FFF7D5FDA00502D46FF015
:101420000100F8E614F0240F0AD0E00714D1386860
:10143000DDE90A12031D3B600068C0E900120BE001
:101440000AA9684615F078F9E00705D13868009ACE
:10145000011D3960006802602846DCE6147B01004B
:101460000A7A0100F1D8FFFF026811441378016085
:1014700018467047D160054979445161044979445F
:10148000116200211161114600F074BCEDFFFFFFF5
:10149000ED000000426842B1016811F8013B23B140
:1014A000521EC0E90012184670470121C160881E13
:1014B000704742685AB1C368016843B983688B4278
:1014C00005D0491E521CC0E90012002070474FF0A1
:1014D000FF30704700487047A8D800240048704784
:1014E00088D8002430B5B0F10A024FEA900E71F1AD
:1014F00000034EEA817EB0EB0E0061EB91014FEAF2
:10150000101E4EEA017E10EB0E0041EB11114FEA66
:10151000102E4EEA016E10EB0E0041EB11214FEA46
:10152000104E4EEA014E10EB0E0041EB11414018F7
:1015300041F100014FEAD00040EA41704FEAD10189
:1015400010EB80054FEA810444EA907444EB0104F7
:101550006D1944EB0404521BA3414FF0000348BF34
:101560000A3200D530BD401C41F1000130BD10B53C
:10157000044600F047FE0068005D00F0010010BD69
:101580002DE9F0470D4699469246044600F124089D
:101590000168880604D5E06921F01001216000E0AF
:1015A0000120A84201DD471B00E00027A1697A194C
:1015B00002EB0900081AA0612078C00602D4204678
:1015C000FFF706F8002608E0D4E901211AF8060022
:1015D0009047206A401C761C20624E45F4DB207840
:1015E000C0060AD52046FEF7F3FF06E0D4E9012144
:1015F00030209047206A401C2062381EA7F1010766
:10160000F4DC07E0D4E9012118F805009047206ACE
:10161000401C2062281EA5F10105F3DC2046FEF7E0
:10162000EDFF2078000602D50220BDE8F0870120FA
:10163000FBE770472DE9FF4F0C461E464FF0FF3782
:101640008BB0D2E90001DDF860800A908A46C1F3D0
:101650000A5505B93D46002108464FF00000BAF191
:10166000000F00F4400005DA00EB80004FF4400169
:1016700001EA50004FEA9059B9F1010F00DDB94677
:101680000A9850EA4A000ED044F61050A5F2FF35F1
:1016900045432F14B8F1000F1ED07542291E1EDDE0
:1016A000C9F100021CE0B8F1010F4FF0000001D0B9
:1016B000302103E0F24305E02154401CB042FBDB43
:1016C00030460022002121540B99C1F80880C1E95D
:1016D00000200FB0BDE8F08FBD1B6D1CDEE74A4651
:1016E00000DA694206A800F0FFFC06AB93E80700A9
:1016F00003AB83E8070050460A9901F018F88DE81B
:101700000700A0F500501F3800900398002D09DD58
:1017100042F21F014A46084403A90390684601F0BB
:10172000A2FA08E0A0F500504A461F3803A903902A
:10173000684601F0C0FA8DE807000004000C03D0F1
:101740004FF0FF30410800E01046B8F1000F03D021
:101750000022009215461EE0751E05D4FFF7C2FE5A
:10176000303262556D1EF9D5B3460122084302D0CE
:1017700000227F1C04E02078302801D100227F1E47
:10178000002A099786D01DE0112D07DAFFF7AAFE7F
:10179000303262556D1C50EA0102F5D1084302D087
:1017A0000098C8B10EE00021681E05E0235C625C71
:1017B00063542254401E491C8142F7DBAB46A81BF0
:1017C000401E0990002004F80B000B98099AC0F8FD
:1017D0000880C0E9002B7CE711264FF0000859E78C
:1017E0002DE9F04F88460446D21D22F0070191B042
:1017F000D1E90001CDE90A0114F000F902460B9885
:10180000C00F01D02D2007E02068810701D52B20D3
:1018100002E0202101EAC000032A099001D0072A32
:1018200005DB03464146204600F0F4FC0BE120783E
:10183000800601D5E06900E00620B8F1650F814619
:1018400006D0B8F1660F18D0B8F1670F70D131E04B
:101850000020B9F1110F009001DB112301E009F123
:1018600001030AAA01A90CA8FFF7E4FEDDE90C7048
:10187000002609F10105834647E001204B46009010
:101880004FF000470AAA01A90CA8FFF7D3FEDDE933
:101890000DB00C995D46002610B909F101000D1834
:1018A000B9EB050003D4C0F1FF3609F10105A5EB42
:1018B00009002BE0B9F1010F01DA4FF00109002016
:1018C000B9F1110F0090484601DD112300E00346F5
:1018D0000AAA01A90CA8FFF7ADFEDDE90C704D4680
:1018E00000268346207800070AD4AB4500DA5D461F
:1018F00001A8012D04DD411911F8011C302907D080
:101900004F4502DA17F1040F04DA012082460FE096
:101910006D1EEEE7002F02DCED1B3E4403E0781C59
:10192000A84200DD7D1CB81B00F1010A4FF0004702
:101930002078000703D4AA4501DB4FF0FF3A0021CD
:10194000B7F1004F0DF143088DF8431024D0022069
:101950002B23002F01DA7F422D230A21021EA0F142
:10196000010000DC5FB197FBF1FC97FBF1F201FB9A
:101970001C7C17460CF1300C08F801CDEEE7A8F1FD
:10198000010003702188090501D5452100E065218A
:10199000A0F1010800F8011C09980FA9A1EB0807A4
:1019A000FF1D00B10120411901EBEA70A169384423
:1019B000081A401EA0612078C00602D42046FEF717
:1019C00007FE099828B1D4E901219047206A401CFC
:1019D00020622078C00622D52046FEF7F9FD1EE0E1
:1019E000002E04DBB34502DD01A8805D00E030205D
:1019F000D4E901219047206A401C2062761CAAF19C
:101A000001005FEA000A0AD1FFF764FDC0680168BF
:101A1000405CD4E901219047206A401C2062281EC6
:101A2000A5F10105DCDC07E0D4E9012118F8010B80
:101A30009047206A401C2062381EA7F10107F3DCA2
:101A40002046FEF7DBFD032011B043E62DE9F04F01
:101A500004460D46D21D22F0070089B0D0E9009758
:101A60004846394613F0CAFF0246F80F01D02D232D
:101A700007E02068810701D52B2302E0202101EA3D
:101A8000C0038DF820300BB1012000E00020032AB4
:101A9000824601D0072A04DB2946204600F0BAFB23
:101AA0003FE12078800601D40D2500E0E569C7F309
:101AB0000A560D2D49DA00214FEA175B08464FF010
:101AC0000000002F00F4400007DA00EB80004FF424
:101AD000400100EBD07001EA60008115012901DDB1
:101AE0004FF0FF3100224FEA850CBCF1180F06D3EE
:101AF0001346ACF118004FF08052C24003E04FF49F
:101B0000801323FA0CF30CF10C0CBCF1200F04D35E
:101B1000ACF1200C09FA0CF001E007FA0CF00029F6
:101B20004FF0004801DD18B90FE00ED140450CD34D
:101B300019EB02095F4121B9404502D19F4329EACF
:101B40000209BBEB175F00D0761C2088000502D588
:101B50007B48784402E07A487844193808AA302350
:101B600002F80A30037C0AF10101002E0AF1020A90
:101B700053546A4602DC4FF0300101E04FF031016E
:101B80004FF001088DF8001002D0A6F2FF3603E0F6
:101B900059EA470100D06B4E002D02DC217809077D
:101BA00004D54FF002082E218DF80110C446002103
:101BB0000BE0C7F303433F01C35C491C6D1E02F8F1
:101BC0000830052908F1010801DA002DF1DC0021B7
:101BD0000CE000EB1973491C1B786D1E082902F8F4
:101BE00008304FEA091908F1010801DA002DF0DC8C
:101BF00021688B0602D516E0A8F10108E04505DD55
:101C000002EB080313F8013C302BF5D0B8F1000FBC
:101C100009DD02EB080313F8013C2E2B03D1090761
:101C200001D4A8F10108002D05DD3E2102F80810BD
:101C30006D1E08F10108407C002E02F8080008F132
:101C4000010804DA2D20764202F8080002E02B2079
:101C500002F808000A214FF47A70864208F1010860
:101C60000BDB96FBF0F3303302F8083096FBF0F311
:101C700008F1010800FB136601E0642E0CDB642010
:101C800096FBF0F3303302F8083096FBF0F308F1DE
:101C9000010800FB136601E00A2E06DB96FBF1F05B
:101CA000303002F8080008F1010896FBF1F001FB62
:101CB0001060303002F80800A16908F1010808EB53
:101CC000050202EB0A00081AA0612078C00602D4BF
:101CD0002046FEF77DFC216A08AE01EB0A00206277
:101CE00004E0D4E9012116F8010B9047BAF1010A8A
:101CF000F7D22078C00602D52046FEF769FC6E4672
:101D000009E016F8010B3E280FD0D4E901219047D5
:101D1000206A401C2062B8F10108F2D22046FEF78A
:101D20006DFC09B00320BDE8F08F206A28442062D2
:101D300003E0D4E90121302090476D1EEBD3F8E792
:101D4000BD64010002FCFFFF10B5436913B1AFF39E
:101D5000008001E0FFF70AF8012010BD128800F1B1
:101D6000240182840022C2840122EDE711684FF031
:101D7000FF32E9E72DE9F34F4FF0000A0C465646D3
:101D80008DB001200C9001F10C000B9062690B9852
:101D900001219047051E2DD0252D2CD0216A884782
:101DA000C0B162690B9801219047216A88470028D9
:101DB000F7D16269411E0B98904700E0761CA1693B
:101DC0000D988847216A88470028F7D1E1690D9866
:101DD0008847DBE7A1690D988847A842074601D1EB
:101DE000761CD3E7E1690D9888477F1C02D1BAF1D0
:101DF000000F6FD06BE162690B9800273D463946B2
:101E000090472A2804D162690B9801219047012547
:101E1000DFF8D08262690B9801219047A0F1300170
:101E20000A290AD24745E5DC07EB870100EB4107A9
:101E3000303FDFD445F01005ECE7E90601D46FF040
:101E400000476C280AD04C2814D0682815D06A287E
:101E50000DD074281CD07A281AD01DE062690B9826
:101E6000012190476C2802D045F0040514E045F0AC
:101E700002050DE045F020050AE062690B9801219A
:101E80009047682802D045F0080505E045F4006554
:101E900062690B9801219047C4E9015765283DD03C
:101EA00019DC58287AD00CDC452837D004DC2528EA
:101EB00026D041289ED131E046282FD0472899D1FD
:101EC0002CE05B2877D0612828D063287CD0642858
:101ED00023D15AE0F6E06F2848D008DC66281DD0F0
:101EE00067281BD0692821D06E2816D127E07028DA
:101EF00045D0732868D0752847D078280DD14DE09B
:101F0000A1690D988847252805463FF469AFE16926
:101F10000D9888476D1C3FF46AAFD8E00D992346B1
:101F20006A466FF0010015F049FAC5E045F040003F
:101F300023464FF000026060A80736D43EE0E80771
:101F40007FF447AF2068011D21600068290501D595
:101F500006701BE7290701D5068017E7A90703D5F7
:101F6000F117C0E9006111E706600FE745F0400096
:101F700023464FF008026060A80716D41EE040F622
:101F80000E0125EA0100606016E045F0400023469E
:101F90004FF00A026060A80707D40FE045F0400048
:101FA0006060A80708D5234610220D996FF0010044
:101FB000AFF3008080E007E0102223460D996FF018
:101FC0000100FEF737FC77E04FF0000963284F4629
:101FD000C8464B46CB4602D05B2806D038E0E80620
:101FE00001D40120A060012732E06269D4F80CB06E
:101FF0000B98012190475E2807D14FF0010949460F
:102000006269D4F80CB00B989047216939B9002166
:102010000A4603AB43F82120491C0829FADBD8B350
:10202000216949B308F1010862690B9801219047C1
:102030005D28F4D1B9F1000F09D0002003A951F8AF
:102040002020D24341F82020401C0828F7DB03ABB6
:102050002069002820794FEA40701ED05B46224656
:10206000CDF80080CDE901970D9900286FF00100AF
:1020700020DAAFF300801FE0C11703AA00EBD161A3
:102080004B1121F01F0102EB8302411A136801205A
:10209000884003431360C7E719E00D9922460028E2
:1020A0006FF00100009702DAAFF3008004E0FEF762
:1020B00067FC01E0AFF3008000280ADA401C06D17B
:1020C0000C9820B14FF0FF300FB0BDE8F08F5046B4
:1020D000FAE7E90701D10AF1010A064400200C9051
:1020E00054E60000CCCCCC0C2DE9F04781461646D6
:1020F0008AB0334878440DC88DE80D0030487844E4
:10210000801C03AC0DC884E80D0041F69B300844E8
:10211000372190FBF1F290FBF1F5A5F1800501FB71
:1021200012041B3C02D56442012000E00020DFF8CD
:1021300090A080460027FA44AAF1BE0A0DE0E0070D
:1021400009D03246684607EB47010AEB810100F0EF
:10215000B2FD8DE8070064107F1C002CEFD1184FF2
:102160007F44AC3F18E0E80714D007EB04100DF1F2
:10217000180A90E80E008AE80E00C068F04201D10B
:1021800098190890324606A903A800F094FD03AB05
:1021900083E807006D10641C002DE4D132466946C7
:1021A000B8F1000F03A802D000F05DFD01E000F0DF
:1021B00082FDC9E90001C9F808200AB0BDE8F0872E
:1021C000AC5F010070B516460C46054600F01AF8E3
:1021D000036893F80101012806D0FF2C0FD8185D81
:1021E00068B101202C7070BDD3F80701324621463A
:1021F00003F2071303442846BDE8704018474FF028
:10220000FF3070BD10B5FFF765F9001D10BD00BFB0
:10221000014F01002DE9F0411F46044603260168E5
:10222000072A01F4006004DB08B116A505E016A535
:1022300003E008B115A500E015A521F0100020600D
:10224000A069C01EA0610FB1401EA0612046FEF72C
:10225000BFF94FB1D4E9012138469047206A401CAC
:102260002062C01C206206E0206AFAE7D4E901215E
:1022700015F8010B9047761EF8D22046FEF7BEF9FE
:10228000BDE8F0814E414E006E616E00494E460041
:10229000696E66002DE9FF4F1F464FF03C0987B07D
:1022A0004FF00042DDE9141001F10108DDF858A0FB
:1022B00002EA4050039000200590834605460446FC
:1022C0000490B969461E08988847AAF1010A02904D
:1022D000BAF1000F3BDD02982E2815D01021FEF731
:1022E00063FE00282EDB4FF0010B0599014317D048
:1022F000B9F1000F0BDB4A46C11700F0FEF90543A8
:102300000C43A9F1040905E0012004900BE008B199
:1023100045F0010501200590049820B9361D02E022
:10232000049800B1361FB969089808F10108884778
:10233000BBF1000FAAF1010A0290C9D00999C1F8B6
:102340000080C5E70298702808D0502806D0F969A7
:1023500008988847BBF1000F14D04FE0002002908E
:102360000120BBF1000F049009D0B969089808F169
:1023700001088847AAF10109B9F1000F07DCF969E2
:10238000089888476FF001000BB0BDE8F08F2B284C
:1023900004D02D280CD14FF0FF300490B969089873
:1023A00008F101088847A9F10109B9F1000FE6DD3C
:1023B000411CE4D00A21FEF7F7FD0028DFDB02997B
:1023C00008F1010801EB810100EB41000290B969BD
:1023D000089888470A21FEF7E7FD099AA9F1010943
:1023E000B9F1000FC2F8008001DD0028E7DAF969D1
:1023F000089888470499029800FB016655EA040092
:1024000004D004F04041090002D006E0039898E0AF
:10241000A40044EA9574AD00B61E04F00041080023
:1024200002D16D196441761E159810F0240F03D067
:102430004FF00B095C4803E04FF028096FF07D0076
:102440008246564507DAAAEB06018944B9F1410FE5
:1024500001DD4FF0410901200021A9F1010200F046
:102460004CF9024628400B462140084301D0012187
:1024700000E00021501E029143F1FF31284021402D
:10248000084301D0012000E000200299834651EA70
:102490000B014FD0002108464FF00000039900F4D3
:1024A000400039B100EB80004FF4400100EBD070E8
:1024B00001EA60008015012802DD4FF0FF3000E0E6
:1024C00013D0401C36D0029860B3BBF1000F0CD182
:1024D0004A460120002100F010F92840214008431D
:1024E00001D0012000E00020E0B101204A46002197
:1024F00000F003F9034640190A4661412D1A8C4148
:1025000011D3B9F1400F09DD159810F0240F02D056
:10251000AAF1340603E0AAF1170600E0761C0025B4
:102520004FF0004406E05B1E42F1FF3220EA030553
:1025300021EA0204CAF10100B04206DA1B490398FD
:1025400008430190002000900EE0039AC4F3D321C9
:10255000E80A0A43164940EA44500A433146CDE9A5
:102560000002684614F0E4F9159810F0240F0BD01F
:102570001598C00715D13868DDE90012031D3B60CE
:102580000068C0E900120CE002A8694614F0D4F813
:102590001598C00705D13868029A011D3960006896
:1025A00002604046F0E6000002FCFFFF0000F07F02
:1025B0000000F03F2DE9FF4F92461D4685B04FF0D9
:1025C0000041DDE9124BDDE914727F1E01EA4B5038
:1025D000414940F0FF4940EA0108002122F0200073
:1025E0004928049102D04E2828D04CE03BA0012677
:1025F00007C88DE80700A9690698641C88477F1EF4
:10260000014606D41DF8060018B121F020018142D0
:102610000BD0E96906988847032E34D0082E32D0B3
:102620006FF0010009B0BDE8F08F761C032E01D0D9
:10263000082EE0D1601CCAF80000DCE7A969069802
:10264000641C88477F1E2AD420F02000412826D110
:10265000A9690698641C88477F1E20D420F02000BA
:102660004E281CD1A9690698641C88477F1E48F42F
:10267000002849F48009CAF8004001D4282806D06F
:10268000E969069888475FEACB7012D022E0A96911
:102690000698641C88477F1E01D4002803DAE96984
:1026A00006988847BCE72928F1D1641CCAF8004085
:1026B000E9E71BF0240F07D028680499031D2B605D
:1026C0000068C0E9001805E02868021D2A6000685B
:1026D000C0F800902046A5E70000F07F494E46492B
:1026E0004E4954590000000010B50446AFF3008075
:1026F0002046BDE81040FDF7A1BEB2F120030AD587
:10270000C2F1200301FA02F120FA03F300FA02F009
:1027100041EA0301704700FA03F14FF000007047EF
:1027200001491820ABBEFEE72600020070475FEAB1
:10273000400C08BF91F0000F4FEA8C234FEAC122F2
:1027400043EA51514FEA1C5018BF00F5F0404FEAE0
:10275000300018BF41F000415FEA6C5C00F0298056
:10276000BCF1FF3F08BF40F080407047130C06BF2C
:1027700012044FF0100C4FF0000C130E04BF1202A5
:102780000CF1080C130F04BF12010CF1040C930F91
:1027900004BF92000CF1020CD30F04BF52000CF1E5
:1027A000010C11464FF00002A0F11F00A0EB0C003D
:1027B000704711F0004F08BF704731F000413FF4FF
:1027C000D5AF0B0C06BF09044FF0100C4FF0000CF6
:1027D0000B0E04BF09020CF1080C0B0F04BF09011A
:1027E0000CF1040C8B0F04BF89000CF1020CCB0F11
:1027F00004BF49000CF1010CCCF12003A0EB0C004C
:1028000022FA03F302FA0CF241EA030100F101009B
:10281000704720F07F4C80EA030023F07F47ACEB49
:10282000070303F57C5300F0004003F1FF032DE99B
:1028300080494FEA154B09B44FEA144325EA0B4E81
:1028400024EA03480FF2042606EB132749083E78D2
:102850005FEA320203FB0667C7F5000707FB06F6CF
:102860004FEA54374FEAD64606F1020607FB066CDC
:10287000CCF1005C4FEA1C472CEA074C07FB06F43E
:102880000CFB06F504EB15464FEA961634BF002004
:102890004FF000404FEAD13706FB07FC4FEA1C4CD3
:1028A0000CFB0BF7D21B03FB0CF761EB07010CFBD6
:1028B0000EF7B0EB074072EB17420CFB08F734BF82
:1028C000A2EB0742B2EB074261EB17414FEA0C441F
:1028D0004FEA910706FB07FC4FEA1C4C0CFB0BF779
:1028E000B0EBC74072EB573203FB0CF734BFA2EBDF
:1028F000C742B2EBC74261EB57310CFB0EF7B0EBAE
:10290000C70072EB57720CFB08F734BFA2EBC7028B
:10291000B2EBC70261EB5771039F4FEA816141EA55
:10292000921104EBCC044FEAD1374FEA826206FBE6
:1029300007FC42EA90124FEA80604FEA1C4C0CFB05
:102940000BF7D21B03FB0CF761EB07010CFB0EF737
:10295000B0EB074072EB17420CFB08F734BFA2EB59
:102960000742B2EB074261EB17414FEA8C554FEA41
:10297000910704EB9C2406FB07FC4FEA1C4C0CFB64
:102980000BF7B0EBC74072EB573203FB0CF734BFC9
:10299000A2EBC742B2EBC74261EB57310CFB0EF71B
:1029A000B0EBC70072EB57720CFB08F734BFA2EB19
:1029B000C702B2EBC70261EB577115EB4C254FEA2A
:1029C000816141EA92114FEA82624FEAD13742EACD
:1029D000901206FB07FC44F100044FEA80604FEAC6
:1029E0001C4C0CFB0BF7D21B03FB0CF761EB070134
:1029F0000CFB0EF7B0EB074072EB17420CFB08F72D
:102A000034BFA2EB0742B2EB074261EB174115EB73
:102A10001C154FEA813141EA92414FEA823242EA83
:102A200090424FEA80304FEA0C7644F1000448EAC5
:102A300003434EEA0B484FF0000EB2EB080C71EB6B
:102A4000030724BF624639464EEB0E0E4FF0000BD3
:102A50000018524149414BEB0B0BB2EB080C71EBE8
:102A600003077BF1000B24BF624639464EEB0E0E86
:102A70004FF0000B0018524149414BEB0B0BB2EBEE
:102A8000080C71EB03077BF1000B24BF624639464B
:102A90004EEB0E0E51EA020718BF46F0010616EB88
:102AA0000E7655F1000254F1000103D5BDE889010D
:102AB000BDE80088BDE88901BDE80048B61952416B
:102AC00041EB0101A3F10103704780807F7E7D7C93
:102AD0007B7A7978777676757473727171706F6EB0
:102AE0006E6D6C6C6B6A6A6968686766666564645B
:102AF000636362616160605F5F5E5E5D5D5C5C5BE5
:102B00005B5A5A5959585857575656555555545453
:102B1000535352525251515050504F4F4F4E4E4DB1
:102B20004D4D4C4C4C4B4B4B4A4A4A4949494848FD
:102B3000484747474746464645454544444444433D
:102B400043434342424242414141000046EA064675
:102B5000A3F570534FEA164646EA42564FEAD22290
:102B600042EA415210B54FEAD121A3F1010300F02E
:102B700017F820F0004000F1010C00F0004701EBD5
:102B800000501146BCF5006F40EA070000D210BDAE
:102B900002484FF0000140EA070010BD0000F07F3E
:102BA000002B26D4770021D01CB54FEA370703B499
:102BB0004FF010004FF010014FF000000FBCBDE8C7
:102BC00010400BF1010BBBF1010F08BF5FEA1707C3
:102BD00022BF12F1010211F101014FF0004143F156
:102BE000000300F0004043EA00007047F9D35708A3
:102BF000DAE746EA064613F1400F4FEA16461FDDB4
:102C000013F1200FDFBF16430A46002120335B4239
:102C1000C8D0C3F1200746EA064602FA07F74FEA92
:102C2000164646EA0706C3F1200722FA03F201FA24
:102C300007F721FA03F14FF0000342EA0702B1E778
:102C400046EA020646EA06464FEA164646EA010604
:102C5000BCBF46EA0646360C4FF000034FF00002B8
:102C60004FF000019EE72DE9C048934630B491E84B
:102C7000380007C831EA400C48BF34EA430C03D59A
:102C8000FFF7C7FDFFF78CFFF0BCBDE800882DE91A
:102C9000C048934630B491E8380007C831EA400C88
:102CA00048BF34EA430C03D5FFF7B3FDFFF74EFFEF
:102CB000F0BCBDE800882DE9C048934630B491E8E7
:102CC000380007C810F0804F08BF13F0804F03D1C1
:102CD00000F019F8FFF764FFF0BCBDE800882DE9AB
:102CE000C048934630B491E8380007C810F0804FD0
:102CF00008BF13F0804F03D100F005F8FFF726FF5F
:102D0000F0BCBDE8008820F07F4780EA030023F094
:102D10007F4C07EB0C03A3F57C5300F00040A3F1BC
:102D2000FE0392F0000F00F0B38095F0000F00F06A
:102D300077802DE901494FEA11404FEA144621EA14
:102D4000004800FB06FC24EA064708FB06F607FBE2
:102D500008F800FB07F718EB06484CEB164C4FEA57
:102D6000124B18EB07484FEA15464CEB174022EA86
:102D70000B4E0BFB06FC25EA06470EFB06F607FB8F
:102D80000EFE0BFB07F71EEB064E4CEB164C4FF0FE
:102D900000061EEB074E4CEB174B18EB0B0840F1EF
:102DA000000018EB0E0B58EB000840F100008F1AE2
:102DB0004FF000013CBFC943661B14BFB5EB040CC8
:102DC00000213CBFC943F61B4FEA17444EEA8E0E62
:102DD00027EA04454FEA1C4704FB07622CEA074C2C
:102DE00005FB07F70CFB05F604FB0CFC16EB07468E
:102DF00042EB174216EB0C4642EB1C421BEB06065D
:102E000058EB0202414146EA9E0601D5BDE8018920
:102E1000B619524141EB0101A3F10103BDE801895B
:102E20004FEA14454FEA114724EA054621EA074CC8
:102E300005FB07F406FB07F70CFB06F105FB0CFC92
:102E400011EB074144EB17444FEA124711EB0C41D9
:102E500044EB1C4422EA074C05FB07F206FB07F78C
:102E60000CFB06F605FB0CFC16EB074642EB174283
:102E700016EB0C4642EB1C456A1854F1000148BFA2
:102E80007047B619524141EB0101A3F101037047AC
:102E900095F0000F37D04FEA11424FEA144721EA6C
:102EA000024624EA074C02FB07F106FB07F70CFB7E
:102EB00006F402FB0CFC14EB074441EB17414FEA0C
:102EC000154714EB0C4441EB1C4125EA074C02FB6F
:102ED00007F506FB07F70CFB06F602FB0CFC16EBEE
:102EE000074645EB174516EB0C4645EB1C421219FD
:102EF00051F1000148BF7047B619524141EB010141
:102F0000A3F1010370474FEA14454FEA114724EA41
:102F1000054621EA074C05FB07F106FB07F70CFB0A
:102F200006F24FF0000605FB0CFC12EB074241EBEA
:102F3000174112EB0C4251EB1C4148BF70479218ED
:102F400041EB0101A3F10103704700002DE9F843B3
:102F50000026002400250027A046A248006840F073
:102F60000400A049086000E000BF9E48006800F02F
:102F700004000428F8D100219B4800F0D5FB012172
:102F8000994800F0D1FB0221974800F0CDFB0321C6
:102F9000954800F0C9FB0421934800F0C5FB0521CA
:102FA000914800F0C1FB8F480838006840F02000CD
:102FB0008C490839086000E000BF8A48083800687A
:102FC00000F020002028F7D18848006820F4403025
:102FD0008749C1F808038748D0F8080320F4403037
:102FE0008449C1F808038248D0F8080340F48020DF
:102FF0007F49C1F808030846D0F8080340F00500EF
:10300000C1F808030846806840F48070886008466C
:10301000D0F8080140F48070C1F8080108468068C3
:1030200020F0005088600846D0F8080120F00050D9
:10303000C1F808010846806840F080508860084662
:10304000D0F8080140F08050C1F80801002000903D
:1030500003E000BF0098401C009044F620610098F7
:103060008842F6DB6248806820F001006049886091
:103070006148006820F00100C1F808010846806836
:1030800020F0804088600846806840F48030886086
:103090000846806840F00040886000E000BF544867
:1030A000806800F000400028F8D15348006820F004
:1030B00080404F49C1F808010846D0F8080140F4A3
:1030C0008030C1F808010846D0F8080140F00040FF
:1030D000C1F8080100E000BF4748006800F0004068
:1030E0000028F8D1009003E000BF0098401C009039
:1030F00044F6206100988842F6DB42F210403C49D9
:10310000C8614FF424503C49143108603B483849A9
:1031100048618861C1F81401C1F818010846806847
:1031200040F00100886000E000BF3148006800F016
:1031300001000028F8D03048006840F001002C4918
:10314000C1F8080100E000BF2948006800F0010054
:103150000028F8D0A824A82544F0020445F0020570
:1031600027480443274805432148C06820F01C0035
:103170001F49C8600846C06840F01800C8601E4873
:10318000001D006820F01C00C1F80C010846D0F8B2
:103190000C0140F01800C1F80C010846C464A046B8
:1031A000C0F84C51A846406820F0400048600846EE
:1031B000406840F0400048600221122009F04EF8BB
:1031C000122009F035F80A48806840F008000849E4
:1031D00088600846D0F8080140F0080006490860F9
:1031E000BDE8F883E0440258000802580823024072
:1031F0000020024000600258082102409224491237
:103200000014A2010016A4012DE9F84300260024B1
:1032100000250027A0465748006840F004005549A3
:10322000086000E000BF5348006800F00400042874
:10323000F8D10021504800F077FA4E48083800686D
:1032400040F020004B490839086000E000BF4948C1
:103250000838006800F020002028F7D147480068AF
:1032600040F480304649C1F808030846D0F8080306
:1032700040F48020C1F808030846806840F480705C
:1032800088600846806820F00050886008468068A2
:1032900040F0805088600020009003E000BF00985C
:1032A000401C009044F6206100988842F6DB3448C8
:1032B000806820F00100324988600846806820F06C
:1032C000804088600846806840F480308860084606
:1032D000806840F00040886000E000BF28488068B7
:1032E00000F000400028F8D14FF480602449C86104
:1032F0002448486188610846806840F00100886081
:1033000000E000BF1E48006800F001000028F8D06F
:10331000A824A82544F4A0541B4805431848C068B5
:1033200020F01C001649C8600846C06840F018002C
:10333000C8600846C06840F48010C8600846C4648D
:10334000A046406820F0200048600846406840F0F1
:10335000200048600121122008F080FF122008F0B0
:1033600067FF0748806840F0080005498860BDE8AD
:10337000F8830000E0440258000802580823024085
:103380000020024092244912009602000248006880
:10339000C0F3C010704700000020024002480068DF
:1033A000C0F300207047000000200240024800687F
:1033B000C0F340207047000000200240034800682E
:1033C00040F0800001490860704700000020024082
:1033D0000348006840F480700149086070470000AD
:1033E000002002400348006840F400700149086072
:1033F0007047000000200240094800680949086041
:103400000948006848600648001D00688860064852
:10341000001D0068C86002480830006808617047F5
:10342000802002400C9400248021024010B52DED34
:10343000028BB0EE408A9FED0B0A28EE000A10EED8
:10344000101A084613F082FE80F30C0000010649B2
:1034500048620846006840F080000860BDEC028BBE
:1034600010BD000000F07F450020024010B52DED9A
:10347000028BB0EE408A9FED0C0A28EE000A10EE97
:10348000101A084613F062FE80F30C000001074991
:1034900008600648B438006840F480700349B439C5
:1034A0000860BDEC028B10BD00F07F45B4200240E7
:1034B00010B52DED028BB0EE408A9FED0C0A28EE80
:1034C000000A10EE101A084613F040FE80F30C00BC
:1034D0000001074908600648BC38006840F40070E5
:1034E0000349BC390860BDEC028B10BD00F07F457C
:1034F000BC20024010B502480068804710BD0000A3
:103500006001002410B50446122001218140074AC1
:10351000430942F8231000BF022108F09FFE04482F
:103520000460122008F084FE10BD000080E100E07D
:103530006001002470B500290CDB07290ADC046A4D
:103540008E000F25B540AC438D0002FA05F52C43E3
:10355000046213E0082910DB0F290EDC446AA1F194
:103560000805AE000F25B540AC43A1F10805AD003C
:1035700002FA05F52C43446200E070BDC4684E00B9
:103580000325B540AC43C46003F0010434B1C46802
:103590004E000125B5402C43C46008E003F002044E
:1035A0002CB1C4684E000225B5402C43C46003F41E
:1035B000807424B1446801258D402C4344608468A4
:1035C0004E000325B540AC43846003F480642CB105
:1035D00084684E000325B5402C43846004684E0087
:1035E0000125B540AC43046004684E000225B54097
:1035F0002C43046000BFC0E730B5D0F8003202466B
:10360000094C2468094D2D686119084C24681C4434
:10361000064D2C6003E012F8014B01F8014B1C1E13
:10362000A3F10103F7D130BD180300241C030024CB
:103630000FB4F0B585B004460CA80490B4F1FF3F78
:1036400005D044B1012C0AD0022C10D10BE011207E
:103650008DF800000BE050208DF8000007E02220DC
:103660008DF8000003E023208DF8000000BF00BFAC
:10367000BDF82C0001900020029021A00390BDF81D
:103680002C00812822D1049820C80490049840C8B6
:10369000049000200190601CC0B104EB8401194823
:1036A00000EB4110806AA84210D0B5F5004F07D05A
:1036B0008120019002950396314613A000F0E2FAB2
:1036C00004EB84010F4800EB411085620020049058
:1036D0000C487C38406802280ED1124A6946002006
:1036E00001F01EFD0746012F06D10E48FFF784FFAB
:1036F00000210C4801F03EF905B0F0BC5DF814FB68
:1037000000000000C40900240D0A415054206E6FCF
:1037100074696669636174696F6E3A2025732E0D52
:103720000A0000007C95002410B502684C000323B9
:10373000A3401A430260C2684C000323A3409A438B
:10374000C26010BD2DE9FE4F81468A4600200290DE
:10375000CAF80000B9F1000F06D0B9F1010F08D086
:10376000B9F1020F0FD109E0E7480190E748009056
:103770000CE0E7480190E748009007E0E648019038
:10378000E648009002E00120029000BF00BF0298CE
:10379000012801D1BDE8FE8FE14800EB49284446ED
:1037A0004146684601F090F80290029808B902205C
:1037B000F0E72078252801D00320EBE76078C0F1FE
:1037C000000B002503E018F8050083446D1CB5F5D7
:1037D000007FF8DB0BF0FF016078814201D004200C
:1037E000D8E76088FCF73AFE60806068FCF736FE38
:1037F0006060A068FCF732FEA060E068FCF72EFE77
:10380000E0602069FCF72AFE20616069FCF726FE73
:103810006061A069FCF722FEA061E069FCF71EFE72
:10382000E061206AFCF71AFE2062606AFCF716FE6F
:103830006062A06AFCF712FEA062E06AFCF70EFE6E
:10384000E062206CFCF70AFE2064606CFCF706FE68
:103850006064A06CFCF702FEA064E06CFCF7FEFD67
:10386000E064206DFCF7FAFD2065606DFCF7F6FD65
:103870006065B4F85800FCF7F1FD81B204F1440032
:10388000A4F85810B4F85A00FCF7E8FD81B204F12E
:103890004400A4F85A10B4F85C00FCF7DFFD81B2D4
:1038A00004F14400A4F85C10D4F85E00FCF7D6FDE7
:1038B000C4F85E00B4F86200FCF7D0FD81B204F1F8
:1038C0004400A4F86210B4F86400FCF7C7FDA4F843
:1038D0006400B4F96600FCF7C1FD01B204F14400D4
:1038E000A4F86610B4F96800FCF7B8FD01B204F161
:1038F0004400A4F86810B4F96A00FCF7AFFD01B207
:1039000004F14400A4F86A10B4F86C00FCF7A6FDBA
:1039100081B204F14400A4F86C10B4F96E00FCF715
:103920009DFD01B204F14400A4F86E10B4F97000DA
:10393000FCF794FD01B204F14400A4F87010B4F84F
:103940007200FCF78BFD81B204F14400A4F8721000
:10395000B4F97400FCF782FD01B204F14400A4F84C
:103960007410D4F87600FCF779FDC4F87600B4F949
:103970007A00FCF773FD01B204F14400A4F87A1058
:1039800000250EE004F17C0101EB4501B1F90000D6
:10399000FCF764FD01B204F17C0000EB45000180FE
:1039A0006D1C0D2DEEDB00250EE004F1960101EB00
:1039B0004501B1F90000FCF751FD01B204F1960098
:1039C00000EB450001806D1C022DEEDB00250EE0B2
:1039D00004F19A0101EB4501B1F90000FCF73EFD4D
:1039E00001B204F19A0000EB450001806D1C022D2C
:1039F000EEDBB4F99E00FCF731FD01B204F14400A6
:103A0000A4F89E10B4F9A000FCF728FD01B204F15F
:103A10004400A4F8A010B4F9A200FCF71FFD01B205
:103A200004F14400A4F8A21000250EE004F1A40162
:103A300001EB4501B1F90000FCF710FD01B204F102
:103A4000A40000EB450001806D1C042DEEDB98F80E
:103A5000AC7098F8AD6094F8AD0067F3000084F89E
:103A6000AD00790894F8AD0061F3420084F8AD0030
:103A7000F90894F8AD0061F3C40084F8AD00790949
:103A800094F8AD0061F3451084F8AD00B90994F8DD
:103A9000AD0061F3871084F8AD0094F8AC0066F3D4
:103AA000000084F8AC00710894F8AC0061F34200A7
:103AB00084F8AC00F10894F8AC0061F3C30084F81A
:103AC000AC00310994F8AC0061F3051084F8AC0047
:103AD000B10994F8AC0061F3861084F8AC00F109E8
:103AE00094F8AC0061F3C71084F8AC00B4F8B000EF
:103AF000FCF7B4FC81B204F14400A4F8B010CAF899
:103B00000040002046E600002DC500083DC5000825
:103B100055C5000869C500087DC500088DC50008A9
:103B20004407002400B5002209F0CAF80F490860D4
:103B300009F0DEF80E4908600C48006820B9084614
:103B40000068012800D1002208480068012804D13B
:103B500007480068012800D101220448006818B90C
:103B60000348006800B90222104600BD4801002445
:103B70004C01002400B5002209F0AAF80F490860A2
:103B800009F0BEF80E4908600C48006820B90846E4
:103B90000068012800D1002208480068012804D1EB
:103BA00007480068012800D101220448006818B9BC
:103BB0000348006800B90222104600BD50010024ED
:103BC0005401002400B5002209F08AF80F4908606A
:103BD00009F09EF80E4908600C48006820B90846B4
:103BE0000068012800D1002208480068012804D19B
:103BF00007480068012800D101220448006818B96C
:103C00000348006800B90222104600BD5801002494
:103C10005C0100240146074850F82100C268B42026
:103C2000805820B9D2F8B00008B9012070470020B0
:103C3000FCE70000440100240146074850F8210039
:103C4000C268A020805820B9D2F89C0008B9012091
:103C500070470020FCE7000044010024014908608F
:103C6000704700005003002410B500E000BF044975
:103C70000968886880470028F8D000F0B3F810BDC4
:103C8000500300240FB438B505A800900E48006812
:103C9000B0F5805F02D300E000BFFDE70B49096883
:103CA000094A12688818009A0499FCF769FC0446CE
:103CB0000548006820440449086000200090204620
:103CC00038BC5DF814FB00005803002454030024A2
:103CD00070B505460E4600240BE0295D09A0FFF7EC
:103CE000D1FF04F00F000F2802D108A0FFF7CAFF90
:103CF000641CB442F1D305A0FFF7C4FFFFF7B4FF83
:103D000070BD000025303258200000000D0A000070
:103D10002DE9F04105460E4600272D48006808B9F8
:103D20002C4805603BE0082C04D00A2C17D00D2C41
:103D30001AD113E02648006878B1274800680321AB
:103D4000426826A0904722480068401E204908602B
:103D500020480068401E1F4908601FE000BF01277F
:103D600000201B49086019E019480068B04214D2CD
:103D70001B490C7018480068012142681848904798
:103D8000144909680C7013480068401C1149086008
:103D90000F480068401C0E49086000BF00BF0E4974
:103DA0000968086880470446B0F5807FBBD16FB1D1
:103DB000002008490968087006480068401C054949
:103DC000086008460068401BBDE8F0810020FBE762
:103DD0005C03002460030024500300240820080032
:103DE0006403002410B50F480068D0B10E4909687B
:103DF00088688047A8B10C48006842680948016893
:103E00000A4800689047094800680949884202D179
:103E100001F5805000E0064804490860002001498F
:103E2000086010BD580300245003002454030024EC
:103E30007CA5002470B500240525002600BF00BF26
:103E400009E0294620460DF017F80646044820F8F8
:103E50001460601C84B2B4F5005FF2DB70BD00003A
:103E600004B001200F48006840F001000D490860CF
:103E70000C480830006840F000500A4908310860DA
:103E80000948006840F47060074908600846C06847
:103E900020F47060C8600548006840F001100349D4
:103EA00008607047E0440258000002580074004067
:103EB00070B50124F248006840F08050F049086075
:103EC000EF481038006840F00E00ED4910390860E6
:103ED00000E000BFEA481038006800F00200022845
:103EE000F7D100E000BFE6481038006800F0040099
:103EF0000428F7D100E000BFE1481038006800F066
:103F000008000828F7D1002306221946DD48FFF7EC
:103F100011FB002303220121DA48FFF70BFB0023EA
:103F200006220221D748FFF705FB002303220A21BE
:103F3000D548FFF7FFFA002306220C21D348FFF7EC
:103F4000F9FA002306220E21D048FFF7F3FA0023E6
:103F500003221146CC48FFF7EDFA002303220B2180
:103F6000C848FFF7E7FA002303220121C648FFF7FC
:103F7000E1FAC348A038006820F08070C049A03939
:103F800008600020C249086000E0641C601CC14950
:103F9000B1FBF0F0C0498842F7D8BD4800684FF443
:103FA0007F0101EA04410843B949086008460068F6
:103FB00020F00C0008600846006840F0040008602B
:103FC0000846006820F0030008600846006840F0DA
:103FD00001000860002048600846006840F080004A
:103FE0000860002008620846006A4FF47F0101EA79
:103FF00004410843A64908620846006A20F00C0004
:1040000008620846006A40F0040008620846006A38
:1040100020F0030008620846006A40F001000862D0
:10402000002048620846006A40F0800008620020D4
:1040300008640846006C4FF47F0101EA044108431C
:10404000934908640846006C20F00C000864084698
:10405000006C40F0040008640846006C20F0030087
:1040600008640846006C40F00100086400204864C1
:104070000846006C40F080000864002084498031CC
:1040800008608348D0F880004FF47F0101EA0441C2
:1040900008437F49C1F880000846D0F8800020F02E
:1040A0000C00C1F880000846D0F8800040F0040001
:1040B000C1F880000846D0F8800020F00300C1F865
:1040C00080000846D0F8800040F00100704980313F
:1040D000086000206E49C1F884000846D0F88000CE
:1040E00040F080006A498031086000206849C1F8CA
:1040F000A0000846D0F8A0004FF47F0101EA044177
:1041000008436349C1F8A0000846D0F8A00020F099
:104110000C00C1F8A0000846D0F8A00040F0040050
:10412000C1F8A0000846D0F8A00020F00300C1F8B4
:10413000A0000846D0F8A00040F001005449A0318A
:10414000086000205249C1F8A4000846D0F8A00039
:1041500040F080004E49A031086000204C49C1F871
:10416000C0000846D0F8C0004FF47F0101EA0441C6
:1041700008434749C1F8C0000846D0F8C00020F005
:104180000C00C1F8C0000846D0F8C00040F00400A0
:10419000C1F8C0000846D0F8C00020F00300C1F804
:1041A000C0000846D0F8C00040F001003849C031D6
:1041B000086000203649C1F8C4000846D0F8C000A5
:1041C00040F080003249C031086001203349086066
:1041D0001020324980310860202031490860402099
:1041E0002F49803108602F482C49091D08602C494F
:1041F0007C3908602A49091D086029498431086012
:104200000320294908602248D0F8000140F4864084
:104210001F49C1F800010846D0F8800140F48640EB
:10422000C1F880010846D0F8000140F00100C1F853
:1042300000010846D0F8800140F00100C1F880017B
:104240000846D0F8040140F00100C1F804016E20D6
:104250000221002807DA0A07150E144A00F00F039E
:104260001B1FD55403E00A07130E114A135400BF55
:104270000748006840F000400549086070BD000034
:10428000F044025800080258000C0258000402587A
:104290000070014000E1F505002D31011071014071
:1042A0001072014000003F606401002418ED00E03E
:1042B00000E400E010B52DED028BF64800680328FD
:1042C0007DD1F5480068401CF3490860F34909684E
:1042D00021F0FF00C11700EB5151C91208EE101A6E
:1042E000B8EEC80ADFEDEE0A20EE200AED4880EDB8
:1042F000000A90ED000AB7EEC00AB7EE041B20EEEC
:10430000010BB7EEC00B80ED000AE749D1F8981118
:1043100021F0FF00C11700EB5151C91208EE101A2D
:10432000B8EEC80ADFEDDE0A20EE200ADD4880ED97
:10433000010A90ED010AB7EEC00AB7EE041B20EEA9
:10434000010BB7EEC00B80ED010A0420D1490860D3
:10435000D548D0F8000120F00100D349C1F8000190
:104360000846D0F8800120F00100C1F8800108461D
:10437000D0F8100120F0FF00C84908390860022079
:10438000C949C1F810010846D0F8900120F0FF009B
:10439000C249783108600420C349C1F89001084639
:1043A000D0F8000120F4F850C1F800010846D0F818
:1043B000800120F4F850C1F88001084600E023E0B5
:1043C000D0F8000140F48070C1F800010846D0F830
:1043D000800140F48070C1F880010846D0F80001E7
:1043E00040F00100C1F800010846D0F8800140F01B
:1043F0000100AA4968310860AC4C2068002802D04E
:10440000D4E90010884741E1A248006804287CD123
:10441000A249096821F0FF00C11700EB5151C912F0
:1044200008EE101AB8EEC80ADFED9D0A20EE200A49
:104430009C4880ED020A90ED020AB7EEC00AB7EE82
:10444000041B20EE010BB7EEC00B80ED020A96496B
:10445000D1F8981121F0FF00C11700EB5151C9129A
:1044600008EE101AB8EEC80ADFED8D0A20EE200A19
:104470008C4880ED030A90ED030AB7EEC00AB7EE50
:10448000041B20EE010BB7EEC00B80ED030A0520E4
:10449000804908608448D0F8000120F0010082497A
:1044A000C1F800010846D0F8800120F00100C1F8F1
:1044B00080010846D0F8100120F0FF007749083944
:1044C000086020207849C1F810010846D0F8900112
:1044D00020F0FF0071497831086040207249C1F82E
:1044E00090010846D0F8000120F4F850C1F800010E
:1044F0000846D0F8800120F4F850C1F88001084641
:10450000D0F8000140F4407000E01FE0C1F8000165
:104510000846D0F8800140F44070C1F88001084698
:10452000D0F8000140F00100C1F800010846D0F8C1
:10453000800140F00100C1F880015C4C0834206823
:10454000002802D0D4E9001088479FE05148006855
:1045500005287CD15149096821F0FF00C11700EB03
:104560005151C91208EE101AB8EEC80ADFED4C0A14
:1045700020EE200A4B4880ED040A90ED040AB7EEC5
:10458000C00AB7EE041B20EE010BB7EEC00B80EDA6
:10459000040A4549D1F8981121F0FF00C11700EB3A
:1045A0005151C91208EE101AB8EEC80ADFED3C0AE4
:1045B00020EE200A3B4880ED050A90ED050AB7EE93
:1045C000C00AB7EE041B20EE010BB7EEC00B80ED66
:1045D000050A03202F4908603348D0F8000120F075
:1045E00001003149C1F800010846D0F8800120F0EF
:1045F0000100C1F880010846D0F8100120F0FF004A
:1046000026490839086001202749C1F810010846E9
:10461000D0F8900120F0FF00204978310860102088
:104620002149C1F890010846D0F8000120F4F85063
:10463000C1F800010846D0F8800120F4F850C1F814
:1046400080010846D0F8000140F4407000E01DE011
:10465000C1F800010846D0F8800140F44070C1F86C
:1046600080010846D0F8000140F00100C1F80001C7
:104670000846D0F8800140F00100C1F880010B4CE1
:104680001034206810B1D4E900108847BDEC028BCB
:1046900010BD00006401002468010024187101406D
:1046A000000000B8509400240070014020940024C1
:1046B00010B52DED028B1849096821F0FF00C117D4
:1046C00000EB5151C91208EE101AB8EEC80ADFED1E
:1046D000130A20EE200A124880ED040A1149D1F88D
:1046E000981221F0FF00C11700EB5151C91208EEDA
:1046F000101AB8EEC80ADFED090A20EE200A0848B1
:1047000080ED050A084C206810B1D4E900108847F4
:10471000BDEC028B10BD000018720140000000B813
:104720005094002400700140309400240849096826
:1047300091ED000A80ED000A0549496891ED000AF3
:1047400080ED010A9FED030A80ED020A7047000028
:104750006C0100249A99993F0849896891ED000AF3
:1047600080ED000A0549C96891ED000A80ED010A53
:104770009FED030A80ED020A704700006C010024DF
:104780009A99993F0849096991ED000A80ED000A5C
:104790000549496991ED000A80ED010A9FED030A80
:1047A00080ED020A704700006C0100249A99993F3D
:1047B000704770477047000028B10649064A1160EB
:1047C000091F516005E00349091F034A1160091DD3
:1047D00051607047549400246C01002428B10649AC
:1047E000064A9160091FD16005E00349091F034A89
:1047F0009160091DD16070475C9400246C01002415
:1048000028B10649064A1161091F516105E00349B3
:10481000091F034A1161091D516170476494002406
:104820006C01002470B504460E4615466E2007F054
:10483000F3FC702007F0F0FC064840F8346000EB11
:10484000C4004560702007F0FEFC6E2007F0FBFC02
:1048500070BD00002094002402480068C0F34F009F
:104860007047000068010024202015498860144822
:10487000BC30006818B31348006840F480601149E8
:1048800008600846006820F47F0008600846006859
:104890000B49BC31096840EA01400A4908604806F2
:1048A0000749C8600846D0F8B80040F00100C1F8D8
:1048B000B8000448006840F400500249086070479E
:1048C00000000240045400402DE9F04105460E4628
:1048D0001C49286808601C496868086072B6012095
:1048E000184909688847002405E04FF47A70174991
:1048F00009688847641C642CF7DB07F0B1FDB8B188
:104900000127CC2007F0FCFDF02007F0F9FD002086
:1049100007F0F6FD002007F0F3FD002404E007F0A7
:104920008FFD06F8010B641CB4F5007FF7DB00E097
:104930000027002003490968884762B63846BDE869
:10494000F08100002000002424000024280000241E
:104950000CE04FF4802006490860642000F06CF8F9
:10496000042003490860642000F066F8F1E70000C5
:10497000180402582DE9F04705460C460026288801
:104980001FFA80F9012C05D12448C069022801D101
:10499000012000E000200643012C09D11F48C06916
:1049A000012805D140F28240814501D0012000E07C
:1049B000002006432CB91948006A022801D10120C1
:1049C00000E0002006434CB91448006A012805D1D4
:1049D00040F28140814501D0012000E000200643E3
:1049E000012E19D1012C01D10DA100E00EA1084624
:1049F000FFF748F9287900F0800008B1A87800E0B6
:104A0000002000F10608002704E0E95D08A0FFF798
:104A100039F97F1C4745F8DBBDE8F0877CC90024E5
:104A20000D0A52783A2000000D0A54783A2000000E
:104A3000253032582000000030B503460DF032FB1F
:104A4000044600E000BF0DF02DFB054621460DF0A9
:104A5000A9FA9842F6DB30BD10B500221146104687
:104A6000FFF7E0FE10BD10B5002211460120FFF750
:104A7000D9FE10BD10B5002202490220FFF7D2FE78
:104A800010BD0000074D000810B500E000BF04494C
:104A9000096808688047B0F5807FF7D110BD000035
:104AA0009C03002410B50F480068D0B10E49096876
:104AB00088688047A8B10C480068426809480168C6
:104AC0000A4800689047094800680949884202D1AD
:104AD00001F5806000E006480449086000200149B3
:104AE000086010BDA40300249C030024A00300243C
:104AF00088CC0024704770472DE9F84F82460C4659
:104B000015466019B0F5005F02D30220BDE8F88FAA
:104B10000DB90120FAE761096019401EB1EB501F81
:104B200001D00320F2E75746A0201D49087000205D
:104B3000C86008741B484860200A1A4908704C7005
:104B400001F102084FF0000905E017F8010B08F821
:104B5000010B09F10109A945F7D3A81C10490872F6
:104B6000084612F02DFA00E000BF12F0E5F9002827
:104B7000FAD00DF097FA834600BFA02012F0F0F9AA
:104B800006463EB90DF08EFA594600900DF00AFA2D
:104B90000628F2DB012E01D10120B7E71E20B5E780
:104BA00054CC002440CA00242DE9FF4F81B089462F
:104BB000144601200090DDF8048009EB0400B0F5F4
:104BC000005F03D3012005B0BDE8F08F0CB90020D1
:104BD000F9E74E46A3464FF0000A3FE0A0202649E1
:104BE000087026484860022008722548C860BBF15A
:104BF000FF0F01DA584600E0FF2007461E490F74F8
:104C0000300A1E4908704E701B4812F0D9F900E0B6
:104C100000BF12F091F90028FAD0002513E00498A3
:104C200020B91748405D08F8010B0BE0009838B137
:104C300018F8011B1248405D814201D1012000E0BB
:104C4000002000906D1CBD42E9DB0098012800D0D7
:104C500009E0ABEB070B3E440AF1010AFF20B4FB6D
:104C6000F0F05045BAD200BF0098012801D00120D1
:104C7000A9E70020A7E7000040CC002440CA002498
:104C800040CB00242DE9F84F80460D469146012087
:104C90000090C34605EB090A2F462C4627E0AC429C
:104CA00006D0E11704EBD1614911A4EB411101B920
:104CB000124E1BF8010B06F8010BAAF10101A142EB
:104CC00007D0E11704EBD1614911A4EB41111F2971
:104CD0000CD10A48321A3946FFF70EFF00900748F8
:104CE000301A07440098012800D002E0641C5445A3
:104CF000D5DB00BF0098BDE8F88F000068CC002429
:104D000070477047704710B504460DF0FFFD10BDA9
:104D10000446214603A0FEF7B5FF01E0FFF762F865
:104D2000FCE700000D0A45786974207769746820F3
:104D30006572726F723A20257300000070B501250C
:104D40003548006840F00200334908600023012222
:104D500008213248FEF7EEFB2F481030006840F47F
:104D600000302D491031086000E000BF2A481030A3
:104D7000006800F40030B0F5003FF6D1284C012067
:104D800000EB1445681E27490880B4FBF5F0401E6F
:104D9000091D08600846006823490880214810382A
:104DA000006840F060001F4910390860084600683C
:104DB00040F0080008601C49088800EBD0714910D9
:104DC000184A0C32116017480838006840F001009A
:104DD00014490839086013481C30006840F400404A
:104DE00010491C3108600F482838008840F06000E6
:104DF0000C49283908800B481438006840F001003D
:104E000008491439086007482838008840F0010034
:104E100004492839088070BDE04402580004025853
:104E2000801A060028440140000000240449098833
:104E300041436422B1FBF2F1024A11607047000065
:104E400002000024344401400448006840F48050CB
:104E50004FF0B041C1F8880070470000880000584A
:104E600002480068012121EA90107047100C025896
:104E700002480068C0F30030704700008800005806
:104E80000448006840F004004FF0B041C1F88800C9
:104E9000704700008800005802480068012121EA9C
:104EA000900070471018025802480068C0F3800054
:104EB00070470000880000580448006840F0010076
:104EC0004FF0B041C1F888007047000088000058DA
:104ED0000348006800F0010080F001007047000006
:104EE000101402580248006800F0010070470000EA
:104EF0008800005830B502F48053FBB903684D00B8
:104F00000324AC40A3430360C3684D000324AC40BA
:104F1000A343C36002F0010333B1C3684D00012411
:104F2000AC402343C36036E002F002039BB3C36886
:104F30004D000224AC402343C3602CE002F4007314
:104F400013B101238B4002E04FF480338B40836127
:104F500002F4807323B1436801248C4023434360EF
:104F600083684D000324AC40A343836002F4806354
:104F70002BB183684D000324AC4023438360036856
:104F80004D000224AC40A343036003684D0001249C
:104F9000AC402343036030BD0EB5F0EE401A062846
:104FA00040D2DFE800F0030C17202B349FED210ADC
:104FB0008DED000ACDED011ACDED021A32E09FED24
:104FC0001D0A8DED000A9FED1B0A8DED010ACDED46
:104FD000021A27E0CDED001A9FED160A8DED010AA9
:104FE000CDED021A1EE0CDED001A9FED120A8DEDF7
:104FF000010A9FED100A8DED020A13E0CDED001AB3
:10500000CDED011A9FED0B0A8DED020A0AE09FED2E
:10501000090A8DED000ACDED011A9FED060A8DED0E
:10502000020A00BF00BF9DED000ADDED010A9DED03
:10503000021A0EBD0000000070B5054604260024CB
:105040000CE0094800EBC40041682846FBF708FD66
:1050500018B1054850F8346002E0641C042CF0DB01
:1050600000BF304670BD0000B87601082DE9F84F4A
:1050700083460E46904600200090BBF1010F03D0FE
:10508000BBF1020F0FD105E0DFF880A0204C214DCD
:10509000214F0BE0DFF884A01D4C241D1D4D2D1D5C
:1050A0001D4F3F1D02E00020BDE8F88F00BF3868AB
:1050B000B04203D06FF00100286020603E60022EF5
:1050C00006D0032E02D0042E18D100E000BF00BF8E
:1050D00020682860D047206020682968A0EB01097B
:1050E000B8F1010F02D1B9F1010F05D0B8F1020FEB
:1050F00003D109F1010000B9009604E06FF001004E
:105100002860206000BF00BF0098CDE7AF360108DF
:105110002C010024340100243C010024B536010890
:105120002DE9F74F2DED028BEEB0709880B170989D
:105130006C907098008880B26B907098871D709802
:10514000007900F07F0065907098407963900DE0E1
:10515000719858B100206C9000277198808880B2B7
:105160006B907198007800F07F0065906598212819
:1051700004D0222805D0232809D105E0002068901A
:1051800008E00120689005E00220689002E000201D
:10519000689000BF00BFF849689851F82000801C53
:1051A0003190F649689851F8200030903098D0F846
:1051B00008803098C1682F91F149689851F8200013
:1051C000D0F80490689851F820000668689800EBC1
:1051D0004001EC4800EB411B689800EB8001E94876
:1051E000603000EB411A729D729DAC1D0020E8708A
:1051F000012028716598687100206790729DC5F83C
:10520000000240F253426B98811A90427BD068DCD6
:1052100040F21342A0EB0201904275D036DCB0F5AB
:10522000047F72D018DC142801F0458209DC0228C2
:105230006CD005286BD011286AD0122841F0C882A2
:1052400034E1152801F0A38218287CD060287BD097
:105250008128F3D101F017BA40F20942811A904235
:1052600073D00CDCA0F2112000286FD0022801F0CE
:10527000AC80032801F0BE801228DFD102E10129B1
:105280007BD007297AD00829D8D187E12D2976D07B
:1052900014DC102974D008DC012972D0032971D0E4
:1052A000042970D00529C9D135E211296CD01629FD
:1052B0006BD027296AD02829C0D1F3E2332971D0D5
:1052C00008DC2E296FD030296ED031296DD03229DB
:1052D000B4D1F8E2352969D03D2968D03E29ADD155
:1052E0008DE3852973D039DC2F2971D01ADC172979
:1052F0006FD00EDC04296DD011296CD012296BD02F
:1053000013299BD15FE18CE3ADE1E4E0D2E06DE0F5
:10531000BCE018297ED019297DD02D297CD02E29DA
:105320008CD151E1662901F09A8110DC5D2901F0F0
:1053300008815E2901F02B81632901F06A816429CB
:1053400087D101F073B9ABE06FE00CE1E5E08129B2
:1053500077D0822976D084298FD1F2E39E2972D02A
:1053600026DC902970D012DC87296ED088296DD078
:105370008D296CD08E2987D1FDE3DFE0F2E028E2B1
:10538000E4E17EE1B1E1C7E1FDE159E17AE2912991
:1053900077D0932901F0D480942901F0F7809D29DA
:1053A0008AD1E9E39BE226E23EE261E2A9E21AE366
:1053B000D12901F0478010DCA02901F05981A129F1
:1053C00072D0A22971D0D02989D101F02AB8F5E391
:1053D00032E1F4E393E3F5E0D2E3D32901F05C801A
:1053E000D42901F07480D6298BD1E9E306202880E6
:1053F0005420A870287940F0800028715422624916
:105400002046FBF763FB6148006820600420A4F895
:105410004E0002E0F7E3F7E3E0E0012067900220AE
:1054200058491C39486001F0D6B9612028806C9831
:1054300080786890689858B101280AD0022817D15E
:1054400008E0F8E3F8E3F8E3F8E3F8E3F8E3F8E377
:1054500000BF00BF689800EB80014A48603000EB55
:1054600041104068012800D100E00220E87002E00D
:105470000220E87000BF00BF6898A8700120679004
:10548000D1E7F3E3C920CAF82000CCE70121CAF82C
:1054900064100021CAF824101920FFF7CDFAC2E7E2
:1054A0000021CAF86410BEE702E11BE10021CAF83E
:1054B0006410B8E7002033491C3948600021CAF85D
:1054C0006410719830B1022028800020A870E87024
:1054D00001206790A7E76C98C078012812D12F9817
:1054E000D0F8A400022817D18103CAF8281001219E
:1054F000689804F047FC0120C9F86400800524493D
:10550000886109E00221689804F03CFC0220C9F897
:10551000640040201E49886185E740F212202880FF
:105520000120A870B9F86800C0F3003008B101206C
:1055300000E00220E8700120679074E740F20B4021
:1055400028800620A870287940F08000287101206A
:105550002080D9F8000062906298C4F8020001200F
:10556000679060E700BF40F209416B98884211D113
:10557000D7F8020010E000002C00002444010024B1
:10558000300300246409002430000024480C002467
:1055900000100258D7F80200629044E740F212402F
:1055A00028800620A870287940F08000287101200A
:1055B0002080D9F8000062906298C4F802000120AF
:1055C000679030E700BF00BFDAF86400012804D11B
:1055D000DAF82400322800DD25E700BF6B98B0F52B
:1055E000906F02D140F2814000E06B9800B22880B9
:1055F0000E20A8700020E870287940F08000287103
:1056000001202080D8F86800022804D1D9F80000D1
:10561000C4F8020003E0D9F80000C4F80200B9F8A9
:105620002800E08000202081689807F05DF8C4F829
:105630000A0001206790F6E60021CAF82410F2E67D
:1056400040F22A4028800620A870287940F0800087
:10565000287101202080689807F046F8C4F80200FD
:1056600001206790DFE6B7F9000064906498022893
:1056700000D1D8E6D7F80600F060D7F80A00B0618C
:10568000D1E640F2154028800E20A870287940F01D
:1056900080002871012020800020C4F80200F068FA
:1056A000C4F80600B069C4F80A0001206790BAE6A1
:1056B000B7F9000064906498022800D1B3E67888B6
:1056C0003062306A002806DD689850B90120FD4933
:1056D000C1F8100105E0689818B90020F949C1F82F
:1056E0001001A0E6308C60809DE6B7F90000649060
:1056F0006498022800D196E6788800B2F0840121EF
:1057000071667868B062F868F06238693063B88AA8
:1057100000B2B08687E600BF4FF483602880162071
:10572000A870287940F08000287101202080F08C3A
:105730006080B06A60600020A060F06AE060306B5A
:105740002061B08EA082012067906CE6B7F900005E
:1057500064906498022800D165E67888C8F89C00B7
:10576000B988A02040F80810D7F80610A42040F807
:105770000810D7F80A10A82040F80810F989AC20C2
:1057800040F808104FE640F2254028801020A8700D
:10579000287940F0800028710120208098F80000CE
:1057A00000F0100008B1032000E00220608098F8AB
:1057B000000000F0200008B1032000E00220A080DB
:1057C0000020C4F80600C4F80A00E08101206790B8
:1057D00029E6B7F9000064906498022800D122E617
:1057E000D7F80600F06378887064B888B064D7F89A
:1057F0000A00F06417E640F2424028800E20A870AC
:10580000287940F08000287101202080B6F84400FB
:1058100060800120A080F06BC4F80600F06CC4F832
:105820000A0001206790FEE5B9F86800C0F3003077
:1058300000B9F8E5D9F85C00012803D0D9F85C007C
:1058400000B1F0E5B9F86800C0F3403010B9D9F8FC
:10585000400000B1E7E50120C9F85C00002002F03B
:1058600093FD0121CAF860100021CAF85810DAE54A
:1058700040F2444028800120A8700020E8700120F8
:105880006790D0E5B7F9000064906498022800D1D1
:10589000C9E5D7F80200B063B06B002801DA002038
:1058A000B063C0E540F23C4028800620A87028790B
:1058B00040F08000287101202080B06BC4F8020005
:1058C00001206790AFE5B7F9000064906498022862
:1058D00000D1A8E5D7F80200CAF80C00A3E540F211
:1058E000474028800620A870287940F08000287161
:1058F00001202080DAF80C00C4F802000120679033
:1059000091E5B9F86800C0F3003000B98BE5F068A4
:1059100008B1B06900B986E5D9F85C00012803D068
:10592000D9F85C0000B17EE50120C9F85C00306A5E
:1059300010B90020B08401E00220B084D9F8000042
:1059400062906C98007900F0800028B1D7F80210BE
:1059500062980844629004E0DAF80C1062980844F7
:105960006290B9F86800C0F3403040B10120349033
:1059700035902F98006A401C2F99086205E000209E
:105980003490359000212F9801622F98006A0128E9
:1059900000D948E5316A4791B6F9240032906298FF
:1059A00036903698D9F80010884201DAB06B00E0E2
:1059B00000203890F1683991B1693A91D9F8001016
:1059C000609132A9689804F01FFCB82234A9684697
:1059D000FBF7C1F8DDE93223689804F0A1FA012150
:1059E000CAF858101FE5B7F90000649064980228BF
:1059F00000D118E5D7F80200CAF8100013E540F20C
:105A0000524028800620A870287940F08000287134
:105A100001202080DAF81000C4F80200012067900D
:105A200001E5B9F86800C0F3003000B9FBE4F068A4
:105A300008B1B06900B9F6E4D9F85C00012803D0D8
:105A4000D9F85C0000B1EEE40120C9F85C006C9864
:105A5000007900F0800018B1D7F80200629002E0EF
:105A6000DAF810006290306A10B90020B08401E0CA
:105A70000220B084B9F86800C0F3403040B1012082
:105A8000349035902F98006A401C2F99086205E0E9
:105A900000203490359000212F9801622F98006AE1
:105AA000012800D9BFE4316A4791B6F92400329049
:105AB000629836903698D9F80010884204DAB06BB4
:105AC00003E00000AC03002400203890F168399115
:105AD000B1693A91D9F80010609132A9689804F040
