:020000040800F2
:10000000E80B0424A1030008A1E60008B1AB000836
:1000100031E20008F1380008E900010800000000A2
:10002000000000000000000000000000D1EE000809
:100030003149000800000000E9E8000821F100084B
:10004000BB030008BB030008BB030008BB03000898
:10005000BB030008BB030008BB030008BB03000888
:10006000BB030008BB030008BB030008BB03000878
:1000700001450008BB030008BB030008BB030008E0
:10008000BB030008BB030008BB030008BB03000858
:10009000BB030008BB030008BB030008BB03000848
:1000A000BB030008BB030008BB030008BB03000838
:1000B000BB030008BB030008BB030008BB03000828
:1000C000BB030008BB030008BB030008BB03000818
:1000D000BB030008BB030008BB030008BB03000808
:1000E000BB030008BB0300080000000029F3000860
:1000F000BB030008BB030008BB030008BB030008E8
:10010000BB030008BB030008BB030008BB030008D7
:10011000BB030008BB030008BB03000801F3000891
:1001200011450008BB030008BB030008BB0300081F
:10013000BB030008BB030008BB030008BB030008A7
:1001400000000000000000000000000000000000AF
:10015000BB030008BB030008BB030008BB03000887
:10016000BB030008BB030008BB030008BB03000877
:10017000BB030008BB030008BB030008000000002D
:10018000BB030008BB030008BB030008BB03000857
:10019000BB030008BB030008BB030008BB03000847
:1001A000BB030008BB030008BB030008BB03000837
:1001B000BB030008BB030008BB030008BB03000827
:1001C000BB030008BB030008BB030008BB03000817
:1001D000BB030008BB030008BB030008BB03000807
:1001E000BB030008BB030008BB030008BB030008F7
:1001F000BB030008BB030008BB030008BB030008E7
:10020000BB030008BB030008BB030008BB030008D6
:10021000BB030008D1F20008E1F20008BB030008AC
:10022000BB030008BB030008BB030008000000007C
:10023000BB030008BB03000800000000BB0300086C
:10024000BB030008BB030008BB030008BB03000896
:10025000BB030008BB030008BB030008BB03000886
:10026000BB030008BB030008BB030008BB03000876
:10027000BB030008BB030008BB030008000000002C
:10028000BB030008BB030008BB030008000000001C
:1002900000000000BB03000800F002F800F070F856
:1002A00014A696E8000CB244B344DA4501D100F03C
:1002B00067F8BAE80F000FA696E83000A5EB040532
:1002C00004EB0607AAEB0704A7F101074FEA15158F
:1002D0004FEA3414A4F10104AC4201D300F050F809
:1002E00013F0010F18BFFB1A43F0010300F001F8EF
:1002F000DBE71847C0450100E0450100103A24BF84
:1003000078C878C1FAD8520724BF30C830C144BF7A
:1003100004680C6070470000704700000023002450
:1003200000250026103A28BF78C1FBD8520728BF05
:1003300030C148BF0B607047662912F0E88164291C
:1003400001F07086632902F07283732902F07783CB
:10035000002070471FB512F0CDF99DE8030002F0B0
:1003600071F802F075FB04000020002112F0B6F8CD
:10037000E06002F079FD1FBD10B502F0DEFD10BD9A
:1003800002F016FE1146FFF7E5FF10F049FA02F001
:1003900079FF03B4FFF7F0FF03BC02F0B1FF0000E8
:1003A0000948804709480047FEE7FEE7FEE7FEE709
:1003B000FEE7FEE7FEE7FEE7FEE7FEE70448054945
:1003C000054A064B7047000001F200089902000838
:1003D000E80B0024E80B0424E80B0224E80B0224B9
:1003E00070B504463B480068C66894B93A48394934
:1003F0000968C860C068374909688860364800786D
:100400003449096888743448417832480068C174B6
:100410000EE030480068C4602E49E06809688860D2
:1004200020782C490968887461782A480068C1746A
:1004300028480068C57C274800684178681E014448
:10044000244800684079814216DD224800684178DE
:10045000681E0844C1B21F48006841711D48006809
:1004600041791C480068C078814205DD1948006860
:10047000C17818480068417116480068007915492C
:1004800009688978884203DD12480068807802E0B4
:100490001048006800790F49096888710D480068A4
:1004A00041790C480068C17100F05EFC304670BDB7
:1004B00010B500F0E6FC07480068C06810BD0146B2
:1004C000052900DB042101EB4100044A02EBC000D6
:1004D000C068704700000024D82E010838000024AE
:1004E0002DE9F04104460D4600F0CBFC0D480068B4
:1004F000C068007810FB04F0C7B20A480068C06802
:10050000407810FB05F0C6B206480068C068407825
:10051000401E3044C6B23146384600F019FFBDE8EF
:10052000F0810000000000242DE9FE43044600276E
:10053000A06802900298007810B90020BDE8FE8300
:10054000FE480068007C10F0080F13D000BF02982E
:100550000578092D02D00D2D00D003E00298401C33
:100560000290F4E700BFF54800680078F349096895
:10057000087113E0F1480068007C00F00C000428CA
:1005800006D0EE480068007C00F03000202805D13D
:10059000EA4800680078E949096808710298206013
:1005A0000298606000200190A0814FF0010800BF18
:1005B00002980090029805780DB10A2D00D1A2E0B2
:1005C0000D2D12D1DD480068007C10F00C0F01D019
:1005D00020252BE0B8F1000F06D0D848006800783D
:1005E000D6490968087184E08DE0092D1BD1D348F4
:1005F0000068007C10F00C0F01D0202516E0606828
:100600000190A789CD4909680979227B1144C8B2B4
:1006100000F087FDC94909680979401A86B2A089A6
:10062000301A86B209E0202D03D100BF6068019026
:10063000A789284600F017FF0646C0480068807862
:10064000BE4909680978401A401CB0420EDCBB481C
:1006500000688078B94909680978401A401CA0816F
:100660000298401C0290029800904CE0B348006849
:10067000008A10F4007F15D0A089B0490968097973
:100680000144AE480068007C00F00C00082801D14D
:10069000701E00E000200844A84909688978884253
:1006A00023DD30E0A0893044401EA449096809795F
:1006B0000844A24909688978884216DD019898B1F2
:1006C0009E480068007C00F0C00040280CD10198D2
:1006D0006060A781019802900298401C02900298E5
:1006E000401C0290029800900DE0A0893044A08147
:1006F00000BF029860600298401C0290029800902F
:100700004FF0000854E700BF0098A0602068007810
:1007100008B9002012E7A068007830B9874800685F
:10072000007C00F00C000C280ED160680578202DAC
:1007300001D0092D08D1D4E90010884204D00198D5
:1007400010B101986060A78100BFA06805787B4860
:100750000068007C10F0800F00D107E00DB10A2D79
:1007600000D103E0A068401CA060EEE700BF0DB917
:100770000120E3E60D2D01D10220DFE60A2D01D094
:10078000092D02D1A068401CA0600320D6E62DE907
:10079000F84F0546A86808B9BDE8F88F00F084FC5A
:1007A00066490968C86800F0EFFB044663480068C2
:1007B000C078624909684978401A401CC7B25F484E
:1007C0000068008A10F4004F07D05C480068007C85
:1007D00010F0010F01D1012000E0002081465848AF
:1007E000007810B1A74200DAD6E754480068007CD0
:1007F00000F03000302806D050480068007C00F03F
:100800003000202870D100264C48006890F804A0E1
:10081000A868009000BF2846FFF786FE80460128A2
:1008200005DCB8F1010F01D1701C86B20BE0B8F104
:10083000030F01D1701C86B24048006800783F4920
:1008400009680871E7E700BF0098A8603B480068A6
:1008500080F804A039480068007C00F0300030289F
:100860001AD1601E3549096849780844C1B2334835
:100870000068417104FB06F0B84249DA04FB1670C7
:1008800000EBD0714A102D49096849791144CAB268
:100890002A4909684A713BE004FB06F0B8422DDDA5
:1008A000781E90FBF4F104FB110024490968497893
:1008B0000844C1B22148006841712148007860B104
:1008C00097FBF4F0301A86B21C4800684079204447
:1008D000C1B21A480068417105E03819401E90FB0A
:1008E000F4F0301A86B203E013E02846FFF71CFE4E
:1008F000301EA6F101018EB2F7DC09E00F48006856
:10090000C178701E04FB1010C1B20C480068417120
:100910000FE00A480068007C00F03000102808D181
:100920000648006840782044401EC1B20348006871
:1009300041712846FFF7F8FD804603E000000024DF
:1009400004000024D7480068008A10F4806F22D089
:10095000D44800684079A0421DDBB9F1000F1AD1DC
:10096000D0480068007C10F0010F02D04FF6FF70F5
:1009700000E00020CB4E009036687679361BF3B24B
:10098000C84E3668B278C74E36687178C54E36683C
:10099000307800F0BBFDB8F1000F76D000BFC14841
:1009A0000068007C00F00C000C2823D1BD490968C8
:1009B0008978BC4A12681278891A491CAA8991421E
:1009C00003DCB8490968097810E0B64909688978F4
:1009D000B44A12681278891A491CAA89881A00EB4D
:1009E000D071B04A1268127802EB6101AD4A126808
:1009F00011711EE0AB480068007C00F00C00082874
:100A000017D1A84800688078A64909680978401A73
:100A1000401CA989884203DCA2480068007805E0F0
:100A2000A04800688078401CA989401A9D4909683F
:100A300008719C480068008A10F4805F3BD0994898
:100A400000680079974909680978884233DDB9F16F
:100A5000000F30D193480068007C10F0010F02D0E5
:100A60004FF6FF7000E000208E4E009036687679D9
:100A7000DFF830C2DCF800C09CF801C0A444664531
:100A800004DA884E3668767807E07FE0854E36686F
:100A900096F805C0661EACEB0606F1B2814E3668CC
:100AA0007379804E36683679761EF2B27D4E36689E
:100AB000307800F02BFD00BF286806787948006880
:100AC000007C10F00C0F04D00D2E01D0092E00D1A7
:100AD0002026304600F038FBD5E90001884200D1DD
:100AE00003E02868401C2860E6E700BF6D48006806
:100AF000008A10F4005F38D06A48006800796949BC
:100B000009688978884230DCB9F1000F2DD1654839
:100B10000068007C10F0010F02D04FF6FF7000E07B
:100B20000020604E009036687679DFF878C1DCF8F6
:100B300000C09CF801C0A444664503DA594E3668EB
:100B4000767806E0574E366896F805C0661EACEB20
:100B50000606F1B2534E36687379524E3668B27853
:100B6000504E3668307900F0D1FCB8F1030F04D153
:100B7000204600F029FA00B107E02846FFF7D4FC30
:100B80008046B8F1000F7FF40AAF53E04548006893
:100B9000008A10F4805F05D142480068008A10F492
:100BA000005F47D0B9F1000F44D13E480068007C97
:100BB00010F0010F02D04FF6FF7000E00020394E18
:100BC000009036687679DFF8DCC0DCF800C09CF86D
:100BD00001C0A444664503DA324E3668767806E0F2
:100BE000304E366896F805C0661EACEB0606F1B2CC
:100BF0002C4E366873792B4E3668368A16F4005FB1
:100C000003D0284E3668B67803E0264E366836792B
:100C1000761EF2B2234E3668368A16F4805F03D011
:100C2000204E3668367802E01E4E366836793046F9
:100C300000F06CFC1B480068008A10F4006F25D09F
:100C400018480068417917480068C07881421DDA69
:100C5000B9F1000F1AD113480068007C10F0010FA1
:100C600002D04FF6FF7000E000200E4E0090366874
:100C7000F3780C4E3668B2780A4E36687679761C70
:100C8000F1B2084E3668307800F040FC00F01BFAF4
:100C900000BF81E51FB5044602946846FFF777FD63
:100CA0001FBD00000000002438B500202C4908704A
:100CB00000F0E7F82B480068007C10F0010F02D02C
:100CC0004FF6FF7000E00020264C00902468E37887
:100CD000244C2468A278234C24686178214C246831
:100CE000207800F013FC0FF023FD1E480068007808
:100CF0001C49096808711B4800684078194909684F
:100D0000C96849780844401EC1B21648006841715C
:100D10001448006800797F2803DD7F2011490968A5
:100D200008711048006841790E480068C078814217
:100D300005DD0C480068C1780A480068417100F080
:100D400013F8084800680078064909688871054862
:100D50000068417803480068C17100F005F838BDAB
:100D600051040024000000245D4A126814325C4BD8
:100D70001B68D21A182392FBF3F2D1B20022584B0F
:100D80001B681A7500200BE0554A1268127D544BFF
:100D90001B681B5C1A44524B1B681A75421CD0B26C
:100DA0008842F1DB704710B5044600204C490968C1
:100DB00008704B49096848707F2049490968887064
:100DC0001F2147480068C1700020454909688871A3
:100DD000002143480068C171002041490968087139
:100DE000012C1ADC07213E480068417100203C4973
:100DF000096808823B483A490968C860C0683849B0
:100E0000096888603748007835490968887435482A
:100E1000417833480068C1740EE031480068C0680A
:100E200010B93048407802E02D480068C07C401E70
:100E3000C1B22B4800684171FFF796FF10BD10B595
:100E400000240BE004EB4400274901EBC0002449D7
:100E500008600020FFF7A7FF601CC4B2052CF1DB7F
:100E60000020214981F8780008461D49086010BD1E
:100E700010B50FF04DFA040001D1FFF7E0FF204656
:100E800010BD10B51648006808B9FFF7F1FF164805
:100E900090F8780005280CDB0420134981F87800CD
:100EA000084690F8780000EB400001EBC0000C49C8
:100EB00008600B480068C06828B9FFF7D9FF0848E8
:100EC000006800B910BD06480068047DFFF74CFFBC
:100ED00003480068007DA04200D000BF00BFF1E7DA
:100EE00000000024D82E01083800002470B5044604
:100EF000FFF7C7FF04480068058A034800680482BA
:100F0000FFF732FF284670BD0000002410B5FFF740
:100F1000B8FF00240BE004EB4400194901EBC000CA
:100F200018490968884200D103E0601CC4B2052C4E
:100F3000F1DB00BF052C01DA204610BD0020FCE7E4
:100F4000052807DA00EB40010D4A02EBC1010D4A0A
:100F5000116003E00A4960310A4A1160704770B5B8
:100F60000446FFF7D3FF0546052C00DB042404EB01
:100F70004400034901EBC00002490860284670BDE7
:100F80003800002400000024014611B90B484078C5
:100F900070474878FCE710B5FFF773FF0848006812
:100FA000C07C10BD0146052900DB042101EB410096
:100FB000044A02EBC000C07C70470000D82E010834
:100FC00000000024380000247CB504462CB9DD491B
:100FD0000968C868FFF7D8FF0446DA480068407916
:100FE0000119D8480068C07881420ADC0FF0A0FBE4
:100FF000D448006840792044C1B2D24800684171A9
:101000004AE0D0480068007C10F0020F15D0CE48AE
:10101000007838B9CB4800684179CA480068C07880
:10102000814201DB01207CBDC64800684079204434
:10103000C1B2C448006841712EE0C348007808B1CD
:1010400025460EE0BF48006840790119BD48006898
:10105000C078081AC5B2BB480068C178B9480068B2
:101060004171B8480068007C10F0010F02D04FF6C3
:10107000FF7000E00020B34ECDE900503668F378F1
:10108000B04E3668B278AF4E36687178AD4E36687D
:10109000307800F017FB00BFAA4800680078A94923
:1010A000096808710020BEE710B5FFF7EAFE0020CE
:1010B000A6490870A3480068008A012121EA10208F
:1010C000A149087010BD10B59E48006800799D497F
:1010D00009688978884205DD9A48006880789949CE
:1010E0000968087197480068417996480068C07897
:1010F000814205DD93480068C178924800684171DB
:101100009048006800798F49096888718D480068A7
:1011100041798C480068C1710FF00AFBFFF724FE8B
:1011200010BD884909680978411AC8B2152190FB99
:10113000F1F1491CC1EBC10101EB4101814A126887
:1011400012781144C8B27047FEB506460A2E01D087
:101150000D2E01D10020FEBD092E3BD17949096831
:101160000879FFF7DEFF0446764909680978884266
:101170002FD074490968C868FFF706FF0546714813
:101180000068007C10F0010F02D04FF6FF7000E005
:1011900000206C4A0090126852796A4F3F687F784D
:1011A0002F44BA4203DA674A1268527804E0654A6B
:1011B000126857796A1EBA1AD1B2624A1268537914
:1011C000604A12681079224600F0A0F95D48006874
:1011D00004718AE05B490968C868FFF7D5FE0746D5
:1011E000584800680079574909688978884208DDBD
:1011F000544800688078401C5249096808710020F2
:10120000A9E75048006882684E480068C1683046C7
:1012100000F0DEF805460DB900209CE72C7849481F
:101220000068008A10F4007F0BD1464800680079FE
:101230002044401E434909688978884201DD012025
:1012400089E740480068C06840883E490968497994
:101250003C4A12685278891AB94201DB002108E041
:10126000384909684979374A12685278891A491CFD
:10127000791AC9B2DFF8CCC0CDE900510290DCF890
:1012800000C09CF80330DFF8BCC0DCF800C09CF85C
:101290000220DFF8B0C0DCF800C09CF805C00CF1FB
:1012A000010CACEB070C0CF0FF01DFF898C0DCF888
:1012B00000C09CF8040000F0DBFB224800680079C5
:1012C0002044204909688978884206DD1D48006865
:1012D00080781C490968087106E01A48006800799E
:1012E000204418490968087100BF002033E710B591
:1012F0000446FFF7D9FE0A2C02D00D2C0BD103E0D7
:101300000020FFF761FE19E00E48006800780D49E3
:101310000968087112E02046FFF716FF68B1094816
:101320000068007C10F0800F07D10020FFF74CFE12
:1013300000B103E02046FFF707FF00BF00BFFFF743
:10134000C2FE10BD0000002404000024510400244B
:1013500070B504460D46FFF794FD1C480068007800
:101360002044C4B21948006840782844C5B21748E0
:1013700000680078A04202DD144800680478134831
:1013800000688078A04202DA1048006884780F482C
:1013900000684078A84202DD0C48006845780B4898
:1013A0000068C078A84202DA08480068C578074893
:1013B0000068847105480068C571044800680471BC
:1013C000024800684571FFF7CFFC70BD00000024A3
:1013D0002DE9F04703460D46002A36D002F1020CF3
:1013E000107810B90020BDE8F08700BF16784FF0E4
:1013F000000800BF711008EB010000EB400000EB9B
:101400000C04207898420ADC6078984207DBA078C8
:1014100094F800A0A3EB0A0A5044C3B21BE061B1E8
:101420002078984201DD0E4605E008EB010000F04F
:10143000FF08701AC6B206B1DCE75078984201D1B5
:101440000020D0E7537800BFD0E72889984201DA1E
:101450000020C8E700BF6888801C87B2D5F80490D8
:1014600007FB0390BFE730B505460D48006808B993
:10147000082030BD0A480068C06808B90820F8E7AD
:1014800007480068826806480068C1682846FFF778
:101490009FFF04460CB90020EBE72078E9E7000045
:1014A0000000002470B504461CB1A4F57F40FF384D
:1014B00014D100250FE02846691CCDB278490C54A0
:1014C0002046E11704EB1161C1F3072329466A1C8A
:1014D000D5B2734A5354082DEDD316E0002512E01F
:1014E000E2B229466E480EF09BFE681CC5B2264645
:1014F000E01704EB1060C0F30722294668480EF09D
:101500008FFE681CC5B2082DEAD370BD2DE9FC5FC3
:1015100007460C4690461D460020624908707F2F02
:1015200000DD7F271F2C00DD1F24A54200DA2546A1
:101530001F2D00DD1F25B84500DAB846B8F17F0F32
:1015400001DD4FF07F08384657490978574A12782D
:10155000914204DA54490870544908700CE0534928
:101560000978884202DA5149087005E04E49097845
:10157000884201DD4C49087020464D4909784D4AA2
:101580001278914204DA4A4908704A4908700CE01E
:1015900048490978884202DA4649087005E044491A
:1015A0000978884201DD4249087040463E49097881
:1015B0003E4A1278914204DA3B4908703B49087070
:1015C0000CE03A490978884202DA3849087005E0A7
:1015D00035490978884201DD334908702846344985
:1015E0000978344A1278914204DA31490870314955
:1015F00008700CE02F490978884202DA2D490870FA
:1016000005E02B490978884201DD294908700C98CA
:10161000FFF748FF04F00700274911F8009005F094
:101620000700264911F800B02846E91705EB51716B
:10163000CD102046E11704EB5171CC1026462BE06B
:10164000AE4201D109EA0B0907EBC6100090BA4679
:101650001CE00AF007001249085C0190B9F1FF0F85
:1016600009D017490098085C20EA0900019901EAAD
:10167000090108430190DDE90001421C92B2009289
:101680000F4A11540AF1010000F0FF0AC245E0DDE3
:101690004FF0FF09701CC6B2AE42D1DDBDE8FC9F21
:1016A0004004002451040024620A0024600A00243B
:1016B000630A0024610A00245C41010864410108B6
:1016C0003E0200242DE9FF4F89B00C461E46002043
:1016D000DD49087009987F2801DD7F2009901F2CC3
:1016E00000DD1F24A64200DA26461F2E00DD1F263D
:1016F00009990B98884201DA09980B900B987F287A
:1017000001DD7F200B900998D0490978D04A1278E2
:10171000914204DACD490870CD4908700CE0CC49FB
:101720000978884202DACA49087005E0C749097891
:10173000884201DDC54908702046C6490978C64A75
:101740001278914204DAC3490870C34908700CE06A
:10175000C1490978884202DABF49087005E0BD49ED
:101760000978884201DDBB4908700B98B7490978B0
:10177000B74A1278914204DAB4490870B449087043
:101780000CE0B3490978884202DAB149087005E0F3
:10179000AE490978884201DDAC4908703046AD4950
:1017A0000978AD4A1278914204DAAA490870AA4928
:1017B00008700CE0A8490978884202DAA649087046
:1017C00005E0A4490978884201DDA2490870311B6F
:1017D000169881420ADA17983346009021460B9AF0
:1017E0000998FFF793FE0DB0BDE8F08F1698301AF8
:1017F000C0B2089004F007009849085C049006F015
:1018000007009749085C0390089800F00700085CFF
:1018100002901698204400F0070004F00701A0EBA6
:10182000010916996018C11700EB51714FEAE108E0
:101830003046F11706EB5171CE102046E11704EB4C
:101840005171CC100898C11700EB5171C910089163
:101850002746F4E0B74203D1DDE9031008400490C5
:1018600009980790DEE007990B98401AC0B20590DE
:10187000072801DD07200590079800EBC81079497B
:1018800000EB010B05980690002500BF1BF8012B0B
:101890002846691CCDB274490A540698411EC9B243
:1018A00006910028F2D1B9F1000F01DDB04504D155
:1018B000B9F1000F21DAA0451FD0B9F1000F02DD08
:1018C00008F1010001E0A8F1010080B2079901EBE5
:1018D000C010644900EB010B05980690002500BF7D
:1018E0001BF8012B2846691CCDB260490A540698A2
:1018F000411EC9B206910028F2D105980690002534
:1019000000BF0898874243DCB9F1000F2BD0B9F132
:10191000000F0BDD544810F805A0B04503D0534824
:10192000405D4AEA002A4AFA09FA1FE0A74201D1BB
:10193000002001E04D48405D82464B48405D4AEA48
:10194000002AB9F1000001DB014600E041420AFA39
:1019500001F11FFA81FA50464FEAEA710AEB116170
:101960004FEA212A02E0404810F805A00898874273
:101970000AD102990AEA01001799C9B2029A914361
:1019800008433949485506E0374901F805A002E007
:10199000354917984855681CC5B20698411EC9B20A
:1019A00006910028ADD10498FF281ED0079800EBBF
:1019B000C7102C4900EB010B05980690002500BFCD
:1019C0009BF80000049988432749495D049A114017
:1019D0000843254948550BF1010B681CC5B2069810
:1019E000411EC9B206910028EAD1079800EBC71042
:1019F0001C4900EB010B05980690002500BF284606
:101A0000691CCDB21849085C0BF8010B0698411E01
:101A1000C9B206910028F2D10598401C07990844E4
:101A2000C0B207900B99079888427FF71CAFFF2040
:101A30000490781CC7B208F1010000F0FF08B7421B
:101A40007FF708AF00BFCEE651040024620A0024ED
:101A5000600A0024630A0024610A00245C41010832
:101A6000644101083E02002440040024480400248C
:101A70002DE9FF4F85B0884691469A46DDE912B6BA
:101A80009BF800509BF8014004B115B909B0BDE8BE
:101A9000F08F0BF10200039024480068007C10F0E6
:101AA000010F01D0802000E000200490149830B98C
:101AB000E81DC11700EB5171C1F3C70703E014988B
:101AC00090FBF4F0C7B219480068008A10F4004F88
:101AD00003D0049840F0400004904EB108EB06009B
:101AE00000F0FF08A01B84B2039817FB06000390C8
:101AF00005982844401E85B204EB0800401E84B2BD
:101B00004D4500DD4D46544500DD54460020084952
:101B10000870DDE90301E3B2EAB2CDE9017100909A
:101B20004146059800F006F800BFAFE7000000242A
:101B3000510400242DE9F04F86B00646DDF844C07C
:101B40000F9D0DB1109D15B906B0BDE8F08F7F2E29
:101B500000DD7F261F2900DD1F218B4200DA0B46A6
:101B60001F2B00DD1F23B24200DA32467F2A00DD40
:101B70007F22109D012D01DA0125109535469B4FDE
:101B80003F78DFF86C8298F80080474504DA974F79
:101B90003D70974F3D700CE0954F3F78BD4202DAA3
:101BA000934F3D7005E0914F3F78BD4201DD8F4F6F
:101BB0003D700D468F4F3F78DFF83C8298F80080EB
:101BC000474504DA8B4F3D708B4F3D700CE08A4FD8
:101BD0003F78BD4202DA884F3D7005E0854F3F787F
:101BE000BD4201DD834F3D701546804F3F78DFF8E1
:101BF000008298F80080474504DA7C4F3D707C4FA6
:101C00003D700CE07A4F3F78BD4202DA784F3D706C
:101C100005E0764F3F78BD4201DD744F3D701D46B3
:101C2000744F3F78DFF8D08198F80080474504DA98
:101C3000704F3D70704F3D700CE06F4F3F78BD426C
:101C400002DA6D4F3D7005E06A4F3F78BD4201DD1D
:101C5000684F3D70CCF3801504950CF0800C01F0BA
:101C60000705664F785D00250595BAE0CF10B7EB04
:101C7000E30F06D103F00707DFF8849119F8077026
:101C8000384000270397B8463546A0E00F464FEA94
:101C9000E17901EB59794FEAE90905EBC91480278D
:101CA0000197571BFFB20297072F01DD0727029705
:101CB00000BF01F0070ADFF84CB11BF80A900027BB
:101CC000DDF81480009100BFDDF840B0DDF80CA015
:101CD00018FB0BABDDF83CA01AF80BA0DDF804B044
:101CE0001AEA0B0F01D047EA090708F1010A0AF0C6
:101CF000FF084FEA496A4FEA1A6A5FEA0A0909D0FF
:101D0000DDF800A00AF1010A0AF0FF0ACDF800A0F0
:101D10009A45D9DDDDF810A0BAF1000F1ED0BCF154
:101D2000000F0ED0DFF8E0A01AF804A087F0FF0B38
:101D30006BEA000B0AEA0B0ADFF8CCB00BF804A040
:101D400021E0DFF8C4A01AF804A007EA000B4AEA71
:101D50000B0ADFF8B4B00BF804A014E0BCF1000FDC
:101D600001D087F0FF07FF2809D0DFF89CA01AF800
:101D700004A02AEA000A07EA000B4AEA0B07DFF888
:101D800088A00AF8047004F1010A1FFA8AF4DDF849
:101D900004A04FEA6A0ACDF804A0029FA7F1010946
:101DA00009F0FF09CDF80890002F82D1571BFFB230
:101DB0000297072F03DD05F10807FDB203E0029F3C
:101DC0007F1C2F44FDB2039F7F1CFFB203979542F7
:101DD0007FF75CAFCDF81480FF2021F007050835B0
:101DE000E9B299427FF742AF00BFADE6620A002434
:101DF000600A0024630A0024610A00245C4101088F
:101E000064410108754001083E02002470B5064691
:101E100000F0FCFA056806F10B0020F00704B4425C
:101E20009CBF002070BD2B466A68BAB11068A04202
:101E300010D304F1080188423CBF5068586007D3B2
:101E40005168101941601168091B016058601460E5
:101E5000101D70BD13465268002AE7D1214628465E
:101E600000F0DCFA0028DED170BD53EA020C00F06D
:101E700069802DE9F04B4FF00006002B1FBFB3FA2D
:101E800083F503FA05F424FA05F65E4012BF164303
:101E9000B2FA82F502FA05F4C5F120051EBF22FA56
:101EA00005FC44EA0C04203556EA044C4FEA14447D
:101EB00018BF641C4FF000084FF00009904271EB0E
:101EC000030C39D3002919BFB1FA81F701FA07F6DB
:101ED000B0FA80F700FA07F6C7F120071EBF20FA14
:101EE00007FC46EA0C062037B6FBF4FCA7EB050717
:101EF000103F07F01F0BCBF120062CFA06F60CFA68
:101F00000BFB44BFB3460026202FA4BF5E464FF014
:101F1000000B5BEA060C08BF4FF0010B19EB0B0935
:101F200048EB0608ABFB027C06FB02CC0BFB03CCA8
:101F3000C01B71EB0C01C1E70B4602464146484607
:101F4000BDE8F08B13B5084318BF4FF0FF300146D2
:101F5000AFF30080BDE81C40704700000FB41CB513
:101F6000074B06AA7B4469460090059800F03DFDAA
:101F70000020694600F04CFD1CBC5DF814FB00001D
:101F8000A90A000070B5044685690068C10601D53C
:101F9000302600E02026C00707D070BDD4E901211B
:101FA00030469047206A401C20626D1EF6D570BDF9
:101FB00070B5044685690078C00707D170BDD4E9C3
:101FC000012120209047206A401C20626D1EF6D51A
:101FD00070BD70B50C460546012A05D028788006EC
:101FE00000D5EA69002302E0012305E05B1C93426F
:101FF00002D2E05C0028F9D1A869E618C01AA861ED
:10200000286A184428622846FFF7BCFF04E0D5E997
:10201000012114F8010B9047B442F8D32846FFF78A
:10202000C7FF70BD2DE9F0410646002410687529F0
:10203000314616A510D0AFF30080002802DA4042E6
:1020400013A507E031688A0701D512A502E0490708
:1020500004D511A5012401E0AFF3008000210A227C
:1020600006F1240709E0B0FBF2FCB0FBF2F302FB3F
:102070001C00303078541846491C0028F3D1234600
:102080002A463046BDE8F04100F043BA00000000A7
:102090002D0000002B000000200000002DE9F05F63
:1020A000894604464FF0000ADFF824B1FB44C0F82B
:1020B00020A02046E168884700287DD0252806D04A
:1020C000D4E901219047206A401C2062F1E70025F5
:1020D0005F462046E16888472028064607DB312E08
:1020E00005D2B81910F8200C08B10543F1E7A8078C
:1020F00001D525F00405C4F81CA00027C4F818A0D9
:102100002A2E09D0304610F0C7F938B304EB8708FF
:10211000303EC8F8186019E059F8041B204604EB5B
:1021200087029161E1688847012F064618D1E0696E
:10213000002820DA25F020051DE0D8F8180000EB73
:10214000800006EB40003038C8F818002046E168EF
:102150008847064610F0A0F90028EED1012F0AD0DA
:102160002E2E08D12046E16888477F1C0646022FA4
:1021700045F02005C4DBA069002803DA404245F0A1
:102180000105A061E80701D025F01005A6B1A6F170
:102190004100192802D8203645F400654A463146E8
:1021A000204625604D46FEF7C7F860B1012807D0EC
:1021B000ED1D25F0070000E007E000F1080978E7D1
:1021C00005F1040975E730467AE7206ABDE8F09F1B
:1021D0006206010010B5044603E010F070F9401CDF
:1021E00009D014F8010B05490028F6D1BDE81040CC
:1021F0000A2010F064B94FF0FF3010BD0801002430
:1022000040EA0103024630B59B0710D14FF001347C
:1022100000E008C208C91D1B9D4315EAC41FF8D081
:1022200013F0FF0102F8011B0DD01B0AF8E711F8AB
:10223000013B002B02F8013B05D011F8013B002BBC
:1022400002F8013BF3D130BD032A40F2308010F098
:10225000030C00F0158011F8013BBCF1020F624441
:1022600098BF11F801CB00F8013B38BF11F8013BD2
:10227000A2F1040298BF00F801CB38BF00F8013B7F
:1022800011F0030300F02580083AC0F0088051F8EF
:10229000043B083A51F804CBA0E80810F5E7121DFA
:1022A0005CBF51F8043B40F8043BAFF30080D20719
:1022B00024BF11F8013B11F801CB48BF11F8012BE5
:1022C00024BF00F8013B00F801CB48BF00F8012B08
:1022D000704710B5203AC0F00B80B1E81850A0E864
:1022E0001850B1E81850A0E81850203ABFF4F5AFE4
:1022F0005FEA027C24BFB1E81850A0E8185044BF40
:1023000018C918C0BDE810405FEA827C24BF51F8AC
:10231000043B40F8043B08BF7047D20728BF31F8A0
:10232000023B48BF11F8012B28BF20F8023B48BFF1
:1023300000F8012B70474FF0000200B51346944699
:102340009646203922BFA0E80C50A0E80C50B1F10D
:102350002001BFF4F7AF090728BFA0E80C5048BF21
:102360000CC05DF804EB890028BF40F8042B08BFBF
:10237000704748BF20F8022B11F0804F18BF00F8BB
:10238000012B70470000000030B44FF0013C50F8C2
:10239000042BCCFA52F451F8043BD51A20D1FCB9E5
:1023A00050F8042BCCFA52F451F8043BD51A17D14B
:1023B000B4B950F8042BCCFA52F451F8043BD51AB6
:1023C0000ED16CB950F8042BCCFA52F451F8043BFE
:1023D000D51A05D1002CDAD030BC4FF00000704780
:1023E00029BAB1FA81F111F01801D1F1200084402D
:1023F000F2D1CA40CB4012F0FF0213F0FF0330BC11
:10240000D01A704770477047704700000048704707
:10241000B8010024704770477047704738B50446CC
:102420000A4600206946AFF30080002808BF38BD87
:1024300002460099204600F013FB012038BD012020
:1024400000F0AEBDF8B5AFF30080054600200C46A5
:102450000C2000BF0646A819A0420DD93246694695
:102460000020AFF30080070008BF00F099FD00983E
:10247000A04218BF0546C419FFF7C8FF056007460C
:10248000F01D20F007004619284600F00AF8B44273
:1024900008BFF8BDA21B31463868BDE8F84000F01F
:1024A000DFBA00210160416070470C20704770B5B1
:1024B0000446051FFFF7AAFF0068002C14BF4468FC
:1024C00070BD002C18BFAC423CBF20466468F8D3F6
:1024D00001680A18AA4218BF456003D12A68054658
:1024E0001144016028684119A1421CBF6C6070BD95
:1024F0006168696021680844286070BD10B500F00B
:10250000ABFA006810BD10B5044600F0A5FA0460EF
:1025100010BD2DE9F0470D4699469246044600F15C
:1025200024080168880604D5E06921F010012160C3
:1025300000E00120A84201DD471B00E00027A1695F
:102540007A1902EB0900081AA0612078C00602D4AB
:102550002046FFF717FD002608E0D4E901211AF80C
:1025600006009047206A401C761C20624E45F4DB32
:102570002078C0060AD52046FFF704FD06E0D4E91E
:10258000012130209047206A401C2062381EA7F1AC
:102590000107F4DC07E0D4E9012118F805009047B1
:1025A000206A401C2062281EA5F10105F3DC2046AC
:1025B000FFF7FEFC2078000602D50220BDE8F08778
:1025C0000120FBE72DE9FF4F0C461E464FF0FF3779
:1025D0008BB0D2E90001DDF860800A908A46C1F331
:1025E0000A5505B93D46002108464FF00000BAF1F2
:1025F000000F00F4400005DA00EB80004FF44001CA
:1026000001EA50004FEA9059B9F1010F00DDB946D7
:102610000A9850EA4A000ED044F61050A5F2FF3551
:1026200045432F14B8F1000F1ED07542291E1EDD40
:10263000C9F100021CE0B8F1010F4FF0000001D019
:10264000302103E0F24305E02154401CB042FBDBA3
:1026500030460022002121540B99C1F80880C1E9BD
:1026600000200FB0BDE8F08FBD1B6D1CDEE74A46B1
:1026700000DA694206A800F093FA06AB93E8070077
:1026800003AB83E8070050460A990EF091FF8DE8EE
:102690000700A0F500501F3800900398002D0ADDB8
:1026A00042F21F014A460844002303A903906846EA
:1026B0000FF0FAF909E0A0F500504A461F38002350
:1026C00003A9039068460FF004FA8DE807000004A0
:1026D000000C03D04FF0FF30410800E01046B8F185
:1026E000000F03D00022009215461EE0751E05D48F
:1026F00000F0D0F9303262556D1EF9D5B346012293
:10270000084302D000227F1C04E02078302801D149
:1027100000227F1E002A099784D01DE0112D07DAC0
:1027200000F0B8F9303262556D1C50EA0102F5D163
:10273000084302D00098C8B10EE00021681E05E0F1
:10274000235C625C63542254401E491C8142F7DBC7
:10275000AB46A81B401E0990002004F80B000B9804
:10276000099AC0F80880C0E9002B7AE711264FF0DB
:10277000000857E72DE9F04F88460446D21D22F0A5
:10278000070191B0D1E90001CDE90A010FF0D8FAB3
:1027900002460B98C00F01D02D2007E0206881076A
:1027A00001D52B2002E0202101EAC000032A099074
:1027B00001D0072A05DB03464146204600F0B0F968
:1027C0000BE12078800601D5E06900E00620B8F131
:1027D000650F814606D0B8F1660F18D0B8F1670FC3
:1027E00070D131E00020B9F1110F009001DB11230D
:1027F00001E009F101030AAA01A90CA8FFF7E2FE12
:10280000DDE90C70002609F10105834647E001204F
:102810004B4600904FF000470AAA01A90CA8FFF709
:10282000D1FEDDE90DB00C995D46002610B909F125
:1028300001000D18B9EB050003D4C0F1FF3609F112
:102840000105A5EB09002BE0B9F1010F01DA4FF00A
:1028500001090020B9F1110F0090484601DD112354
:1028600000E003460AAA01A90CA8FFF7ABFEDDE9C8
:102870000C704D4600268346207800070AD4AB45ED
:1028800000DA5D4601A8012D04DD411911F8011C93
:10289000302907D04F4502DA17F1040F04DA01207E
:1028A00082460FE06D1EEEE7002F02DCED1B3E447A
:1028B00003E0781CA84200DD7D1CB81B00F1010A72
:1028C0004FF000472078000703D4AA4501DB4FF002
:1028D000FF3A0021B7F1004F0DF143088DF8431086
:1028E00024D002202B23002F01DA7F422D230A213E
:1028F000021EA0F1010000DC5FB197FBF1FC97FB29
:10290000F1F201FB1C7C17460CF1300C08F801CDEC
:10291000EEE7A8F1010003702188090501D54521E2
:1029200000E06521A0F1010800F8011C09980FA939
:10293000A1EB0807FF1D00B10120411901EBEA706E
:10294000A1693844081A401EA0612078C00602D44C
:102950002046FFF717FB099828B1D4E901219047D9
:10296000206A401C20622078C00622D52046FFF74E
:1029700009FB1EE0002E04DBB34502DD01A8805DEB
:1029800000E03020D4E901219047206A401C2062F9
:10299000761CAAF101005FEA000A0AD100F058F89B
:1029A000C0680168405CD4E901219047206A401C5E
:1029B0002062281EA5F10105DCDC07E0D4E9012135
:1029C00018F8010B9047206A401C2062381EA7F1BE
:1029D0000107F3DC2046FFF7EBFA032011B041E6D4
:1029E00001694A1C02610878704700B58FB0CDE9D3
:1029F00001310021059105497944CDE903101146C3
:102A00006846FFF74BFB0FB000BD0000E5FFFFFF7E
:102A10000A6802F8010B0A60704710B5436913B1E8
:102A2000AFF3008001E0FFF7D4FA012010BD127867
:102A300000F124010A7000224A700122EDE71168BA
:102A40004FF0FF32E9E7000000487047B001002472
:102A500000487047D001002400487047B0010024AE
:102A6000034640688C46002818BF88423CBF034696
:102A70004068F8D318681844884207D00CF1030066
:102A800020F00700001D411A521A0146081D0A6075
:102A9000FFF70DBD30B5B0F10A0271F100034FEA46
:102AA000900E4EEA817EB0EB0E0061EB91014FEA91
:102AB000101E4EEA017E10EB0E0041EB11114FEAA1
:102AC000102E4EEA016E10EB0E0041EB11214FEA81
:102AD000104E4EEA014E10EB0E0041EB1141401832
:102AE00041F100014FEAD00040EA41704FEAD101C4
:102AF0004FEA810444EA907410EB800544EB010432
:102B00006D1944EB0404521BA3414FF0000348BF6E
:102B10000A3200D530BD401C41F1000130BD00003B
:102B20002DE9F0411F46044603260168072A01F4F7
:102B3000006004DB08B116A505E016A503E008B1A6
:102B400015A500E015A521F010002060A069C01EA9
:102B5000A0610FB1401EA0612046FFF713FA4FB1EC
:102B6000D4E9012138469047206A401C2062C01CED
:102B7000206206E0206AFAE7D4E9012115F8010B8A
:102B80009047761EF8D22046FFF712FABDE8F08192
:102B90004E414E006E616E00494E4600696E660001
:102BA0002DE9F047814616468AB0354878440DC86D
:102BB0008DE80D0032487844801C03AC0DC884E8D1
:102BC0000D0041F69B300844372190FBF1F290FB59
:102BD000F1F5A5F1800501FB12041B3C02D564420E
:102BE000012000E00020DFF898A080460027FA448A
:102BF000AAF1BE0A0EE0E0070AD03246684607EBAB
:102C0000470101230AEB81010EF063FF8DE8070005
:102C100064107F1C002CEED1194F7F44AE3F19E0A9
:102C2000E80715D007EB04100DF1180A90E80E0024
:102C30008AE80E00C068F04201D198190890324627
:102C4000012306A903A80EF044FF03AB83E80700A5
:102C50006D10641C002DE3D14FF00103324669462C
:102C6000B8F1000F03A802D00EF01EFF01E00EF035
:102C700030FFC9E90001C9F808200AB0BDE8F087B3
:102C80001CFD00002DE9F05F054617460C46C8689C
:102C900020F4201040F48000C860800602D5084669
:102CA00000F031FAE06841F282014FF0FF3A014052
:102CB000022903D0204600F0C3F9B9E000F4204116
:102CC000B1F5004F0FD1C00306D56168E06A8842B4
:102CD00000D80846606006E02069E06260606069D4
:102CE0000DF02EFAA061A0680022EEB200280DDAE5
:102CF000E1688B050AD4C043A06041F490302260A3
:102D0000E0606068411C61600670AAE0E06891467E
:102D1000226040F40050E060206978BB60690DF0EB
:102D200013FA04F124054FF00108A8B1A08910F4AA
:102D3000407F08D0E069FFF769F8206118B1E068CA
:102D400040F4006017E0C4F81C802561E06820F4BE
:102D5000407040F480600EE0E069FFF757F800280B
:102D60002061F0D0E06840F4006010F4407FE06043
:102D700002D140F48070E06020696060E0682569FD
:102D80006FF0010BC1051ED56168E06A884200D86A
:102D90000846411B04D02246284600F05BF9E8BBF8
:102DA0001FB1E562C4E9015959E0681CE062606046
:102DB000E069401EA060E06840F48030E06030468A
:102DC0002E70BDE8F09F17B100F480320AE0606811
:102DD000411C61600670E0680A2E40F48030E060BB
:102DE00006D00022E16A6068814203D90B4602E006
:102DF0000122F7E70346B4F80CC05B1B5FEA4C5CAA
:102E000004D4D4F81CC09C4500DD02B3814200D834
:102E10000146002BA1EB0008E56200E008E0C4E9F0
:102E2000015907DD22461946284600F013F908B17A
:102E30005046C6E7B8F1000F09D0A169E5626560A8
:102E4000A1EB0800A061E06840F01000E06047B12D
:102E50006168A069E562491B08446560A061584645
:102E6000AFE73046ADE7000010B542485421FFF708
:102E700062FA41485421FFF75EFA40485421FFF7B7
:102E80005AFA3F493B483C4A3F4B08603D490A607B
:102E90003A491960531C0365481C106501200865F8
:102EA0003B48344A39A1784400F04EF920B93848FB
:102EB00078440A3800F0F4F937482F4A35A17844AD
:102EC00000F042F920B9344878440A3800F0E8F9B3
:102ED00032482A4A2FA1784400F036F920B92F4809
:102EE00078440A3800F0DCF940232248DC00002155
:102EF000224600F082F820B125487844543800F08A
:102F0000CFF91D4822464023002100F076F820B179
:102F100021487844543800F0C3F918482246102359
:102F2000002100F06AF8002806D01C487844BDE86B
:102F30001040563800F0B4B910BD104870B5006D9F
:102F400020F001040B4800F077F90B4800F074F909
:102F50000A4800F071F909E0206D20F001052046D3
:102F600000F06AF92046FFF7A2FA2C46002CF3D1B4
:102F700070BD0000B4000024080100245C0100249E
:102F8000080000240C00002410000024720000003F
:102F9000AC110100770000009B11010074110100C9
:102FA00010B500F085F9BDE8104000F074B9704725
:102FB0007546FFF749FDAE4605006946534620F0C9
:102FC0000700854618B020B5FDF7F8F9BDE82040A8
:102FD0004FF000064FF000074FF000084FF0000BD5
:102FE000AC46ACE8C009ACE8C009ACE8C009ACE844
:102FF000C00921F007018D46704770B5C468A50768
:1030000013D0650211D4B2F5807F09D0B2F5007FEC
:1030100006D0B2F5806F08D1012300F1240106E04B
:103020005D1E6FF07F46B54201D3012070BD016186
:10303000C361416024F470611143C160002070BD20
:10304000C16821F4001141F08001C160002181605C
:10305000016070472DE9F74F15460C464FF0FF3BD6
:103060003848D768D2F814A0074209D05046A96959
:103070000DF0A6F8002819DB3248C0430740EF6086
:103080004FF000496FF000484C4501D3464600E040
:10309000264600993B46504632460DF095F8A96900
:1030A00020F00042B21A1144A96128B12846FFF766
:1030B000C7FF5846BDE8FE8FA41BE5D10020F9E705
:1030C00070B504460569C06A6168884200D8084640
:1030D000E16821F42011E160C90312D5A84208D0AB
:1030E0002246411B2846FFF7B5FF10B14FF0FF30D5
:1030F00070BD0020E562C4E90150E06820F4803032
:10310000E060002070BD10B50446C06820F02000CB
:10311000E060A16AA06988420DD02046FFF7D0FF89
:10312000E06820F4405040F01000E060A06AA06128
:103130002069E062606044F24001E0688843E0603A
:1031400010BD0000100002002DE9F0410C461646AB
:10315000070047D0104600F06FF82078611C612806
:103160000AD0722802D077283CD102E00125002441
:1031700005E00225042402E0082448F2020511F8C3
:10318000010B2B2806D0622809D011F8010C7428F5
:103190000AD00BE045F0030544F00204EFE745F0E8
:1031A000040544F00104EAE744F0100438462146DF
:1031B0000CF0D2FF411C15D00021316171604FF439
:1031C0000071F560F1617061200704D5304602227C
:1031D000002100F09BF8306D40F001003065304672
:1031E000BDE8F0810020FBE72DE9F0410D460646E1
:1031F000104C206DC10704D0410804D020F0010418
:10320000F7E722460EE05420FEF700FE07000ED03E
:10321000206D47F001010843542120653846FFF72F
:103220008AF83A4629463046BDE8F0418CE700204E
:10323000D6E70000B40000242DE9F04704464FF023
:10324000FF380026C568D4E90497A80718D020469F
:10325000FFF736FF38460CF067FF002800DA4646D5
:10326000280502D54846FFF722F94C212046FFF7F2
:1032700062F8206D20F0010020653046BDE8F0873F
:103280004046FBE710B50446AFF300802046BDE89A
:103290001040FDF77EB8002801D000F031B870472B
:1032A00010B500F0C9F8BDE81040FFF7F4BF00000A
:1032B00010B5012805D0002103A000F0A3F80120DB
:1032C00010BD09A1F8E7000053494752544D454D40
:1032D0003A204F7574206F662068656170206D65B7
:1032E0006D6F7279000000003A2048656170206DB2
:1032F000656D6F727920636F7272757074656400AA
:1033000001491820ABBEFEE7260002002DE9F0417E
:10331000044616460D464769007B80072ED0384686
:103320000CF012FF50BB3EB3012E02D0022E25D16D
:1033300004E0204600F0A1F805441DE038460CF0FA
:10334000FFFEE168002841F01001E16005DA204647
:10335000FFF776FE0120BDE8F081C9030BD5626856
:10336000E16A914200D81146A26911442269891A82
:10337000814200DD08460544002D01DA0220EAE71B
:10338000E16A6068E268814206D29103E06203D597
:1033900022F4003141F01002A6690027AE4213DC8E
:1033A000E16A814201D90B4600E0034603EB060CBB
:1033B0002369ACEB030CAC4506DD814201D98C4698
:1033C00000E084469C4505D1A760276042F02000BC
:1033D000A5620DE0AD1BE669AE1B8142A66000D977
:1033E0000846C01A281A20605819606022F0200090
:1033F00003490840E060002084F84870ABE7000013
:10340000BFCFD7FF70B505460C460A2000E06D1C03
:1034100000F02CF835B128780028F8D102E0641CBF
:1034200000F024F814B120780028F8D1BDE87040ED
:103430000A2000F01BB8000010B5014602A0FFF7FB
:10344000E1FF012010BD000053494752545245444A
:103450003A2052656469726563743A2063616E272D
:1034600074206F70656E3A200000000008B5694650
:103470008DF800000320ABBE08BD10B50146C26840
:10348000900703D0900607D5886A0AE0FFF7E4FAB0
:1034900001210160881E10BD8B69486818440B69C2
:1034A000C01A91F848301BB191F84910401A10BD6C
:1034B0001103FCD50028FADD401E10BD00000000FD
:1034C000B0B50446006842F2001140F48070C4F2C6
:1034D0000201884204D142F20830C4F2020003E043
:1034E00046F20830C5F60200006810F4403F10D0E4
:1034F00005F0CEF961680546B1F5803F05D0B1F51C
:10350000403F22D0B1F5003F20D1080CB5FBF0F5CB
:103510001CE04FF4002004F02BFA61680546A1F589
:1035200080228B0343EA92420A2A0FD8DFE802F096
:10353000060606060606494B4D4F51006FF0010086
:1035400000EA5140B5FBF0F500E0AD0803F020FCC7
:1035500041F2030188420DD8206842F60151C0F2C1
:1035600031118D4281682CBF41F4807121F480714A
:103570008160B0BD4BF62140C0F2BE00854205D847
:103580002068816821F440718160B0BD47F6410038
:10359000C0F27D10854203D820680122816808E0CE
:1035A00020684FF28101C0F2FA218D42816804D86F
:1035B000022262F309218160B0BD41F44071816053
:1035C000B0BD2D09C2E76D09C0E7AD09BEE7ED0941
:1035D000BCE72D0ABAE700000146806B426D12F08D
:1035E000500F426D05D0D2060FD4C06CC26C084695
:1035F000104742F40071416501680A681207CA6801
:1036000005D4910709D001F05FBE01F065BE12F448
:10361000406FF8D1C9688904F5D4416D21F48071F7
:103620004165416DC904EED4416D41F00101416530
:1036300001F04ABE00000000806B416D41F0400186
:103640004165816D41F00401816501F045BE0000D6
:10365000806B01F03DBE0000B0B5016804468A6889
:103660008868C0074FF0000032D012F0020218BF85
:10367000B0BD886800F00D00012820D14FF6C0725F
:103680008868C7F6FF721040023088600320086027
:1036900003F086FB21688968C90701D10020B0BD0D
:1036A000054603E020688068C007F7D003F078FB88
:1036B000401B0328F6D320688068C007F2D0606DF5
:1036C00040F010006065A06D40F00100A065012091
:1036D000B0BD000000000000F0B581B004460068F5
:1036E0008168C9074DD14FF6C0778168C7F6FF776B
:1036F00007F17F0211420AD0606D40F01000606552
:10370000A06D40F00100A065012001B0F0BD81680E
:10371000394041F00101816003F042FB42F20003B5
:1037200046F20836C4F20203216803F5807203F5FD
:103730004275C5F60206914208BF2E46994208BF5F
:103740002E4699420546306817D0914215D110F0A7
:103750001F0016D111E000BF8168C90704D181683C
:10376000394041F00101816003F01AFB401B03283E
:1037700003D320680068C007BED020680168C9076D
:10378000EAD0002001B0F0BD8C460021C0E900C2A3
:10379000C0F808144FF4806280F8761440F6B8330D
:1037A000C0F87814C0F87C14C0F8801400F1080147
:1037B000C0F88434604607F003B900000000000040
:1037C00010B5044690F8760458B104F20C43D4F8CE
:1037D000782408461946FEF737FD002084F8760461
:1037E00010BD012010BD000091F90420B2F1FF3F8F
:1037F00001DD062201E08A78063280B50068FF23E9
:1038000007F06AF9002080BD70B5044690F8760490
:1038100008B1002070BD60684FF4806100684068A6
:10382000C0F58065D4F80804281A01EA50510E1832
:10383000D4F87C0446D030B90620C4F8780403F0EC
:10384000AFFAC4F88004D4F87804D4F87C14401A91
:10385000B042B8BF0646012E19DB04F20C4071429B
:10386000D4F80824D4F87C3422440131127AC254AA
:10387000D4F80824D4F87C3402F1010203F10103E6
:103880006FF39F22C4F87C34C4F80824E8D3D4F83A
:103890007C040628BDDB94F91014B1F1FF3F04DC71
:1038A00094F80E140631C4F87814D4F878148842C9
:1038B0004FF0000018BF70BD012184F87614C4F8E1
:1038C0007C0470BD0028A4D003F06AFAD4F88014F8
:1038D000D4F88424401A90424FF00000F1D9C4F883
:1038E0007C040220C4F8085470BD000000000000F1
:1038F000FEE7000000000000B0B505461446016078
:1039000040F20110A88003F04BFAC5E90204B0BDF3
:10391000B0B50446006801F047FA80F0010503F0F5
:103920003FFA6179A94208D1D4E90212401A9042C3
:1039300098BF2579012D05D006E065712579A06035
:10394000012D01D1207910B100202571B0BD0120D9
:103950002571B0BD00000000C06808B101F024BAB4
:103960000020704700000000806808B101F01CBA18
:103970000020704700000000F0B589B090F8A83230
:10398000012190F8B022002B08BF4FF0FF31032A2D
:103990001ED0022A4BD190EDA40B02EE101A012783
:1039A0009FED251BD0E9A6EC20EE010B80F8B1724B
:1039B000B8EEC22BD0E9A85654EC101BCDE903C5D4
:1039C00053EC122B8DE8124005960021069126E05B
:1039D00000EE101A90EDA21BB8EEC00B21EE000B0A
:1039E000B5EE400BF1EE10FA1ED090EDA41BD0E91D
:1039F000A6179FED112BD0E9A84C21EE021B4FF02A
:103A0000010E80F8B1E253EC102BCDE9021704A9A6
:103A100055EC116B81E810500021CDE9006507914C
:103A200000F07AF909B0F0BD012180F8701009B0FA
:103A3000F0BD00BF00BF00BF9A9999999999B93F0D
:103A4000006A0BF0B9BA0000B0B50446002190ED51
:103A50000C0B0025A4F8B15290ED101BC4F878525D
:103A600021EE000BC4F87C5284F8845290ED061BC2
:103A7000012084F8B30280EE010B94F8B002043800
:103A8000B0FA80F04009800084F8B002206A0BF0A0
:103A9000D3FA206A84F8B352BDE8B0400BF098BA6C
:103AA00010B50446006A0BF0A3FA012084F8B202B4
:103AB00010BD0000000000002DE9F04F89B0044661
:103AC00040F2000890ED0C0B00211E4690ED101BFB
:103AD0001746189D21EE000BCBF6F078DDE912A910
:103AE00090ED061B012084F8B30280EE010B94F8E0
:103AF000B0024FF0000B84F8B1B20438C4F878B2C9
:103B0000B0FA80F0C4F87CB2400984F884B2800036
:103B100084F8B002206A0BF08FFAC4E9A276EEB204
:103B2000A4F8B3B21498C4E9A4A9C4F898021598EB
:103B3000C4F89C021698C4F8A0021798C4F8A4020E
:103B40001998C4E9AA5016B1E06810B91AE0A06843
:103B5000C0B101F029F9A8B194EDA40B0022022014
:103B60009FED191BC3F6F07284F8B00220EE010B32
:103B7000002ED4E9A6CED4E9A83751EC100B18BF1B
:103B800090460EE004F5247E0122D4E9A8379EE891
:103B9000035084F8B022002E04BF40F20008C3F6A0
:103BA000F0780022012584F8B1528DE80350CDE968
:103BB000043700204346CDE90600204600F0ACF86B
:103BC00009B0BDE8F08F00BF9A9999999999B93FCA
:103BD000B0B50446012580F8B35201600021818010
:103BE00040F20110C4E902232082049800222062DE
:103BF00084ED060BC4E90A11C4E90C11C4E90E11E5
:103C0000C3F6F072C4F88012C4E91012C4E91212AB
:103C1000C4E99E1184F884124FF44071A4F8B012E4
:103C20000BF0E6F9A4F8B25284F8B452B0BD00002B
:103C300090F8B2027047000090F8B0020438B0FA71
:103C400080F040097047000090F8B00210F0FB00CF
:103C500018BF01207047000090F884020138B0FAC4
:103C600080F040097047000090F88412012903D1C8
:103C7000D0F88002C00F704700207047000000009D
:103C8000014690F8840201284FF0000018BF7047E9
:103C9000D1F880120029C8BF012070470000000041
:103CA00010B52DED028B044690ED9E8BA0300AF0EE
:103CB000AFFCB4EE408BF1EE10FA03DA0020BDEC5D
:103CC000028B10BD94F87000002818BF0120BDECD5
:103CD000028B10BD000000002DE9F04389B0169E54
:103CE0000DF1400EF7B20121022F159F08BF0321ED
:103CF0009EE80051DDE91395179C80F8B1128DE81C
:103D00000051CDE90395CDE90576079400F004F85C
:103D100009B0BDE8F08300002DE9F04F81B02DED32
:103D20000A8B82B0044690F8B202002800F0FB80B3
:103D3000012084F8B302206A994616461C9F43EC82
:103D40001C2B0BF039F9B0EE408BFFB2022F12D0D2
:103D5000012F18BF002F1FD1B5EE40CBF1EE10FAA6
:103D600011DCB5EE40CBF1EE10FA15DA4FF0FF3072
:103D70000190012013E0206A0BF01EF9B4EE4C0B09
:103D8000F1EE10FA03DA01200190002007E0B4EE12
:103D90004C0BF1EE10FAE9DC00200021019194F8BF
:103DA000B412DDF86480DDF860B0DDE916A5DDE968
:103DB0001ACEE1B194F8B11203291BD1B8B104F1C4
:103DC0007800022FC4E9215B80E8400604F18C00F2
:103DD00080E800511C9884F898004FF0020084F8A5
:103DE000B10204D194ED0A0B3CEE40BB02E001208D
:103DF00084F8B10245EC19AB94F8B10248EC1ABB57
:103E0000012822D14FF0000084F8B10247B1012F00
:103E100019D0B0EE48BB022F17D1B0EE4CBB14E066
:103E2000BAEE040BB5EE40CBF1EE10FAB2EE041B85
:103E300031FE000B20EE090B20EE090B80EE0A0B81
:103E400030EE08BB01E038EE0CBB94F8840204F1BC
:103E5000A007012807D194ED9E0B38460AF0C0FB5D
:103E6000B0EE402B01E09FED342BB0EE480B38460E
:103E7000B0EE4B1BB0EE494BB0EE4A5B9FED2E3BD4
:103E80000AF086FB94F87002B0B104F15000C4F857
:103E90006480C4E9175B80E840061A98A0661D9804
:103EA0001B99E1661C99C4E91C100020C4E99E001E
:103EB000012084F884022FE094ED0C0B012084F89B
:103EC000B30294ED101B94F8B002002121EE000B18
:103ED0000025043884F8B15294ED061BB0FA80F046
:103EE000C4F8785280EE010B4009800084F8B002DB
:103EF000206AC4F87C5284F884520BF09DF8206A42
:103F000084F8B35290ED060AB8EEC00B28EE000B11
:103F1000BDEEC00B80ED050A0198C4F880020020B8
:103F2000607184F8B30202B0BDEC0A8B01B0BDE849
:103F3000F08F00BF00BF00BF0000000000000000C5
:103F4000F0B581B02DED068B90ED0C0B04461546B7
:103F500090ED101B0126002721EE000B90ED061BB3
:103F6000DDE90C1040EC181BDDE90E1040EC191BCC
:103F7000DDE9101040EC1A1B94F8B002002180EE2D
:103F8000010B84F8B3620438A4F8B172B0FA80F07F
:103F9000C4F878724009C4F87C72800084F8B002DA
:103FA000206A84F884720BF047F8206A84F8B372B0
:103FB0000BF00EF829EE0A1B206A00EE105A84ED71
:103FC0000C1BB8EEC00B88EE000B84ED0E0B0BF053
:103FD0000FF894ED0C0B206A002194ED101B84F86F
:103FE000B26221EE000B94ED061B80EE010BBDECDE
:103FF000068B01B0BDE8F0400BF01EB800000000D9
:104000002DE9F04F87B090ED0C0B0446002190EDA8
:10401000101B002721EE000B90ED061B1F98069049
:1040200080EE010B1E980590DDE91C090490DDE986
:104030001A86DDF860A01398169D039012980190DF
:10404000DDE9100B0290012084F8B30294F8B0026D
:10405000A4F8B1720438C4F87872B0FA80F0C4F8E9
:104060007C72400984F88472800084F8B002206A6F
:104070000AF0E2FF206A84F8B3720AF0A9FFE8B2FE
:1040800002280BD0012813D0B446DDE90563DDE931
:10409000032E019FB0B90020207413E0A068B4463D
:1040A000019FDDE90563DDE9032E58B1012108E038
:1040B000A068B446019FDDE90563DDE9032E08B180
:1040C00000218171C5F30720022806D0012809D0FC
:1040D000029D60B90020607409E0E068029D30B183
:1040E000012103E0E068029D08B10021817142ECEA
:1040F000117B206A4BEC125B43EC106B82EE011BD0
:1041000002EE10AA49EC13EBB8EEC22B4CEC148B68
:1041100021EE021B23EE000B84EE022B84ED0A1B22
:1041200084ED0C0B84ED0E2B0AF062FF94ED0C0B6A
:10413000206A002194ED101B012284F8B22221EEA6
:10414000000B94ED061B80EE010B07B0BDE8F04FAD
:104150000AF072BF00000000B0B50446002190EDE7
:104160000C0B002584F8B15290ED101BC4F8785266
:1041700021EE000BC4F87C5284F8845290ED061BAB
:10418000012084F8B30280EE010B94F8B0020438E9
:10419000B0FA80F04009800084F8B002206A0AF08A
:1041A0004BFF84F8B352B0BD2DE9F04381B02DED43
:1041B000048B88B0044690F8B202002800F0878093
:1041C00094F8B302002840F0828004F1A00594ED39
:1041D0009E9B2846B0EE408B0AF01AFAB4EE409B44
:1041E000F1EE10FA1BDB94F87000C0B194F8B10244
:1041F000022814D104F1800E012084F8B1029EE857
:104200000350D4E91E23D4E92467D4E926898DE834
:10421000035004A880E8C0032046FFF77DFD94F812
:104220008402012853D194ED9E9B28460AF0F0F9B0
:10423000B4EE409BF1EE10FA27DB94F8700020B347
:1042400094F8B002032818D1206800F08DFD206A90
:10425000002100250AF054FF94ED0C0B042084F893
:10426000B00294ED101B84F88452206A21EE000BFA
:104270000021012284F8B42299E02079002800F07E
:104280008B80607908B9012060716079012824D1A0
:1042900028460AF0BDF928460AF08AF9B0EE408BAC
:1042A000206800F045FD38EE400B206A9FED8E2B14
:1042B000B0EEC01BB4EE421BF1EE10FA37DAB0EEEE
:1042C000480B0AF021FF0020607184F8840208B0D6
:1042D000BDEC048B01B0BDE8F083A06828B100F00C
:1042E00063FD10B194F8A80240B1E06878B100F025
:1042F0005BFD60B194F8A802012808D194F8B002DF
:10430000012823D1002084F88402022004E094F8DC
:10431000B00202281AD1032084F8B002204608B067
:10432000BDEC048B01B0BDE8F043FFF725BB94ED75
:10433000061BB5EE400B4FF0FF3194ED0C0BF1EE88
:1043400010FA80EE010BC8BF012134E094ED9E0B02
:1043500094F8700030EE080B84ED9E0B50B12846A7
:104360000AF026F9B0EE409B206A0AF025FE39EEED
:10437000409B5CE028460AF07BF994ED9E1BB4EE6E
:10438000401BF1EE10FA1EDAB0EE410B28460AF09F
:1043900027F920EE089B4AE094ED0C0B206A0021DF
:1043A00094ED101B002284F8842221EE000B94ED82
:1043B000061B80EE010B08B0BDEC048B01B0BDE81C
:1043C000F0430AF039BE284684ED9E0B0AF008F946
:1043D00020EE089BB5EE409BF1EE10FA0DDBB7EE38
:1043E000002B206A90ED060AB8EEC00B29EE001BE8
:1043F000B4EE421BF1EE10FA15DDB5EE409BF1EE86
:1044000010FA14DABFEE002B206A90ED060AB8EE1F
:10441000C00B29EE001BB4EE421BF1EE10FA06DBD6
:104420009FED2D1B01E09FED2A1B81EE009BB5EE59
:10443000409BF1EE10FA0CDDA06850B100F0B4FC26
:1044400038B194F8B00210F0FB0F02D1207C0128A3
:1044500011D0B5EE409BF1EE10FA15DAE06898B194
:1044600000F0A2FC80B194F8B00210F0FB0F0BD169
:10447000607C012808D1204608B0BDEC048B01B057
:10448000BDE8F043FFF768BE89EE080B206A94EDA3
:104490000C1BB0EEC00B94ED0E2B94ED123B23EEF3
:1044A000011B20EE020B9FED0E2BA1EE020B94EDF3
:1044B000061B80EE011BB0EE490B08B0BDEC048B6F
:1044C00001B0BDE8F0430AF00BBE00BF00BF00BF63
:1044D000295C8FC2F528F03F295C8FC2F528F0BF18
:1044E00039B4C876BE9FF63F9A9999999999B93F80
:1044F0000022C0E9001280ED020B704700000000AE
:1045000040F21C50C2F2004001F03AB90000000035
:1045100040F29450C2F2004001F032B900000000B5
:1045200040F20F42D0F800C0C4F20202944510DC01
:104530006F22C4F20202944520DC3F22C4F2020240
:10454000944536DC1022C4F20202944554D028224D
:104550004EE040F26F42C4F2020294451ADC40F28F
:104560003F42C4F2020294452ADC40F21042C4F2F7
:104570000202944540D040F2284239E09F22C4F222
:104580000202944525DC7022C4F20202944533D025
:1045900088222DE040F29F42C4F2020294451FDCC3
:1045A00040F27042C4F20202944525D040F28842A3
:1045B0001EE04022C4F2020294451DD0582217E0AA
:1045C00040F24042C4F20202944515D040F25842F3
:1045D0000EE0A022C4F2020294450DD0B82207E0FA
:1045E00040F2B842C4F20202944505D040F2A04223
:1045F000C4F20202944517D10CF0F8024AF6AB233C
:10460000103ACAF6AA23A2FB033109A35F2AC1F319
:1046100002115B5C40F2FF312CEA0101C36588BFE7
:1046200004318165084670472CF0FF01F9E700BFAF
:10463000000610160006101670B540F26F44D0F850
:1046400000C0C4F20204D0F858E0A44519DC9F254C
:10465000C4F20205AC4531DC5725C4F20205AC4575
:1046600056DC1025C4F20205AC4500F092802825E6
:10467000C4F20205AC4500F08C804025C4F202056E
:1046800084E045F22F45C5F60205AC452BDC40F22F
:10469000B745C4F20205AC4548DC40F27045C4F2AF
:1046A0000205AC4575D040F28845C4F20205AC4520
:1046B0006FD040F2A045C4F2020567E040F2274502
:1046C000C4F20205AC4540DCA025C4F20205AC45AD
:1046D0005FD0B825C4F20205AC455AD040F210456F
:1046E000C4F2020552E045F26B45C5F60205AC4541
:1046F0003CDC45F23045C5F60205AC4549D045F2F3
:104700004445C5F60205AC4543D045F258453BE06B
:104710005825C4F20205AC453BD07025C4F2020511
:10472000AC4536D08825C4F202052FE040F2B845EA
:10473000C4F20205AC452CD045F20845C5F6020589
:10474000AC4526D045F21C451EE040F22845C4F297
:104750000205AC451DD040F24045C4F20205AC450F
:1047600017D040F25845C4F202050FE045F26C45FF
:10477000C5F60205AC450CD045F29445C5F60205D8
:10478000AC4506D045F28045C5F60205AC4540F083
:10479000CC80456EC66E002E866E6E601CBFD0E962
:1047A0001C566E60A44515DC9F24C4F20204A44587
:1047B0002BDC5724C4F20204A4454EDC1024C4F2BE
:1047C0000204A44576D02824C4F20204A44571D082
:1047D00040246BE045F22F44C5F60204A44527DCD3
:1047E00040F2B744C4F20204A44542DC40F27044F3
:1047F000C4F20204A4455DD040F28844C4F202042D
:10480000A44557D040F2A04450E040F22744C4F2FF
:104810000204A4453CDCA024C4F20204A44549D00F
:10482000B824C4F20204A44544D040F210443DE050
:1048300045F26B44C5F60204A44553DC45F230440E
:10484000C5F60204A4455FD045F24444C5F602040F
:10485000A44559D045F2584452E05824C4F2020409
:10486000A44527D07024C4F20204A44522D0882491
:104870001CE040F2B844C4F20204A4451AD045F248
:104880000844C5F60204A4453ED045F21C4437E076
:1048900040F22844C4F20204A4450BD040F2404444
:1048A000C4F20204A44505D040F25844C4F2020404
:1048B000A4453AD18468C06D00F01F003F2505FA79
:1048C00000F0CEF80800DCF80000402C20F4802036
:1048D000CCF80000CCF8043023D1CCF80820CCF878
:1048E0000C1070BD45F26C44C5F60204A4450BD013
:1048F00045F28044C5F60204A44505D045F294442F
:10490000C5F60204A44510D1C46D012504F01F04AE
:10491000806805FA04F4CEF804404028CCF804304E
:10492000DBD0CCF80810CCF80C2070BD00000000E3
:10493000704700000000000040F224000021C2F295
:10494000004001707047000040F224000121C2F2D3
:10495000004001707047000010B540F2292101228B
:10496000C2F20041044640F21C000A7040F23021BD
:10497000C2F20041C2F200400A6040F22C21C2F2B1
:1049800000410068086002F00BFA40F23421C2F2E4
:104990000041086040F238214FF47A70C2F20041C1
:1049A0006043086010BD000040F21C00C2F20040ED
:1049B000006870470000000080B502200BF068FE20
:1049C000FCF756FA0020FCF7CAFAFCF76DF943F23F
:1049D0002010C0F60100FBF703FD4FF42070FCF738
:1049E00085FA40F21C01C2F20041086820EAE07238
:1049F00040F2E060C2F20040642A28BF64220368EB
:104A00000A60D96A514348F21F52C5F2EB12A1FB6A
:104A10000212002152095A63BDE8804005F0ACBC87
:104A200040F2182244F24C21C2F200420346C0F682
:104A3000010110461A46FDF791BA0000000000007F
:104A400040F2E06120EAE070C2F2004140F21C0254
:104A50006428C2F2004228BF642009681060CA6A54
:104A6000504348F21F52C5F2EB12A0FB020250095C
:104A7000486370470000000040F22001C2F200418C
:104A80000A68824208BF704720EAE070642828BFA5
:104A9000642008607047000040F22801C2F2004123
:104AA000086070470000000040F6D03244F24C210C
:104AB000C2F200420346C0F6010110461A46FDF755
:104AC0004DBA000000000000F0B581B000200021C8
:104AD000FBF706FD40F6D030C2F20040FCF7DAF8F2
:104AE00000200221FBF7FCFC40F21820C2F200403B
:104AF000FCF7D0F802F054F940F2292140F21C03EF
:104B0000C2F2004140F2E06E48F21F5CC2F2004384
:104B10000A78C2F2004EC5F2EB1C002A4BD040F6D8
:104B2000C832C2F200421468041B0B2C25D340F299
:104B3000302440F22C26C2F20044C2F2004625681E
:104B400037683D443560A5F1640717F1640F05D857
:104B50000126632DC8BF4FF0FF36266025EAE574B5
:104B6000642C28BF6424DEF800501C60EE6A744395
:104B7000A4FB0C4674096C63106040F2342240F2CE
:104B80003824C2F20042C2F2004412682468821A39
:104B9000A24210D91A6800240C7022EAE272642A38
:104BA00028BF6422DEF800101A60CC6A6243A2FBC0
:104BB0000C2462094A6340F22401C2F200410978E0
:104BC000002940F6CC31C2F200411FD040F2280447
:104BD0000A68C2F20044121A25682A442260002A98
:104BE00007DD1A6822EAE272642A28BF64221A608A
:104BF00004E040F22002C2F200421268DEF8003007
:104C0000DF6A7A43A2FB0C277A095A63086001B075
:104C1000F0BD00000000000080B584B092B20068D2
:104C20000093022301924FF0FF0C8AB2A121CDF82C
:104C300008C002F05DF904B080BD00000000000073
:104C40002DE9F04784B00C46C91780469A4604EB1C
:104C5000D161174621F01F01611A14D0C1F120055E
:104C6000D8F80000A9B20191A2B2FF210291A021BF
:104C70000223CDF800A002F03FFA052001F094FFD6
:104C8000BD4203D11DE00025BD421AD04FF0FF09FF
:104C90007E1B2919202E0AEB0502A8BF2026D8F872
:104CA00000000092B2B201928AB2A0210223CDF894
:104CB000089002F021FA0520354401F075FFBD424D
:104CC000E6D104B0BDE8F087002A027118BF704732
:104CD000B0B5054604200C46FDF798F8286004603E
:104CE000BDE8B0407047000090F804C0BCF1000F70
:104CF00018BF70470068FFF78FBF0000000000007A
:104D000090F804C0BCF1000F18BF70470068FFF7AF
:104D100097BF0000000000000A4601600021C0E9C2
:104D200001113C2180ED040B104604F0F9BE000097
:104D300090ED020AB8EEC00B90ED041B21EE000BC3
:104D40007047000000000000816070470000000014
:104D50000168D0E901230968496A8A1A1A44C0E93E
:104D600001127047000000000168002209684A62D1
:104D7000C0E9012270470000EFF3108072B600BF57
:104D8000FEE700000000000081888279006801F0E1
:104D9000F7BF00000000000081794A1E818818BF1B
:104DA0000122006801F0ECBF10B58188044600685C
:104DB00001F0DEFFA179401AB0FA80F0400910BD81
:104DC00080B58188006801F0D3FF80BD000000003D
:104DD00070B582B000230193044690F8500001287A
:104DE00002D1022002B070BD012084F8500020469C
:104DF00015460E46FEF730FC616D10B141F0100112
:104E00002DE041F202124FF6C0739143C3F6FE73D8
:104E100002316165216806F4803605F080458A68B4
:104E20001A4073191A4402F100428A604FF60002D8
:104E3000C2F2C3528B68B3F1FF3F0CDC019B01331C
:104E40000193019B9342F5D3606D40F0100020F078
:104E50000201012003E0616D012262F3010161653D
:104E6000002184F8501002B070BD00000000000066
:104E700090F85020012A01D10220704770B582B00D
:104E800042F20835012280F8502000230193C4F239
:104E900002050093A5F542740368A34228D14FF69A
:104EA000006ECFF6FF7E55F80E409A6822435207F7
:104EB0001ED4D1F800C02A68BCF1000F22F440448F
:104EC00023D043F4807242F20013C4F202034E680E
:104ED0009A4244EA06022A602BD14FF60052CFF6DE
:104EE000FF72AA5855F80E301343DA073FD127E076
:104EF000416D41F0200141650121002280F85020E0
:104F000002B0BDE870400846704742F2001243F418
:104F10008071C4F202022C6091421AD14FF6005106
:104F2000CFF6FF71695855F80E201143C9071ED1FD
:104F300016E046F20802C5F602021368DA0716D137
:104F40002A6840F61F739A438968114341EA0C01AD
:104F50000AE046F20801C5F602010968C90706D150
:104F6000296840F61F72914329600021C5E700219E
:104F7000C3E7000000000000F0B581B000220092FD
:104F800090F85020012A01D1022156E1076801233F
:104F900080F85030BC68640700F14781D1E90042D5
:104FA000260394FAA4F5B5FA85F508BFA50EC4F357
:104FB000846405F01F06C2F3012502F01F02B3400E
:104FC000FE693343FB6107EB85031F2696401D6B8B
:104FD00004FA02F225EA060632431A63BA68BB688D
:104FE00002F0040203F00803D21840F082800A683D
:104FF00007258E68C2F34063C2F3045207EB8303B4
:1050000095405C6906FA02F224EA05052A435A61D2
:1050100041F20002C5F60042126802F07042B2F19D
:10502000805F07D14A69FB680E2606EA530302FA3D
:1050300003F30CE0FA684B69FE68D2064FEA5604A7
:1050400002D404F00E0201E004F0080293400C695F
:10505000042C26D13A6E0B6802F0F8429B069A4265
:1050600003D13A6E22F000423A667A6E02F0F842BC
:105070009A4203D17A6E22F000427A66BA6E02F04A
:10508000F8429A4203D1BA6E22F00042BA66FA6E32
:1050900002F0F8429A422CD1FA6E22F00042FA66EF
:1050A00027E007F160020E6806F0F84652F8245037
:1050B000334305F000452B4342F824300B694E7E04
:1050C00052F82350012E25F0004508BF05F1004598
:1050D00042F823500A7E0B693E69013A03F01F0330
:1050E000B2FA82F226F4F0465209D2029A403243D2
:1050F0003A61BA68D2074CD14FF6FF7CCE68C0F255
:105100000F0C0B6806F0180203EA0C042CFA02F2EA
:1051100040F2000CD7F8C050C4F2FF7CA5431A40FF
:10512000664542EA0502C7F8C0202ED193FAA3F2E1
:10513000002CB2FA82F24FF0010608BF9A0E01323B
:1051400002F01F0302F01E020A2A03EB430506FACF
:1051500003F340F20006CFF6206606EB055646EA5A
:10516000030646F0007638BF43EA055607258B68EC
:10517000C6F34062C6F3045607EB8202B540546999
:10518000B34024EA05052B4353610B68B3F1FF3F9D
:1051900001DD00214EE042F2000146F2083CC4F27B
:1051A0000201C5F6020C01F5807201F542769742C4
:1051B000624608BF32468F4242F2001508BF3246AF
:1051C00047F48076C4F20205AE42D2F800E024D162
:1051D0008A68D1F808111143C90726D100210EF0C1
:1051E000E074CCF684318B4208BF1EF4000127D056
:1051F0000021CCF252718B424DD10021B1EB146FE2
:1052000049D1ACF542718F42C3D1DCF8001021F0D6
:10521000E071214341F0807152E04FF60051CFF62A
:10522000FF715CF80110C907D8D0416D41F0200131
:1052300041650121002280F85020084601B0F0BDF0
:10524000ACF542718F42A4D1DCF8001042F66352F3
:1052500021F0E071C0F23E52214341F40001CCF84C
:10526000001040F21401C2F2004109688909A1FB53
:1052700002129109022202EB4101009100990029DA
:105280003FF487AF009901390091009900294FF050
:105290000001F7D1CEE7ACF542718F424FF000012B
:1052A000C8D10022CCF6B872934208BF1EF4800227
:1052B000C0D1DCF8001021F0E071214341F48001FD
:1052C000CCF800100021B5E7704700000000000096
:1052D0007047000000000000704700000000000060
:1052E000B0B582B0044600284FF00000019044D0D1
:1052F000606D30B9204600F00BF90020A06584F8FD
:10530000500020688168890006D54FF6C072816818
:10531000C5F6FF72114081608168C90020D44FF644
:10532000C0718268C5F6FF7101F18051114042F6EB
:10533000635201F18051816040F21401C0F23E528B
:10534000C2F2004109688909A1FB0212012101EBA7
:10535000921100BF0191019911B101990139F9E749
:105360008168C9000BD4616D012541F010016165B0
:10537000A16D41F00101A16502E00125BCE000251D
:105380008168626D02F0100201F004018918616DFC
:1053900042D121F48171023161658168C90728D148
:1053A00042F2001240F48071C4F20202914242F2D1
:1053B0000001C4F2020140F0A2808A68D1F80831ED
:1053C0001A43D20715D101F5807201F5427346F2F6
:1053D000080C9042C5F6020C1A4618BF0CF5407234
:1053E000884208BF1A466068116821F47C1108439E
:1053F000106001F0CDFC41F20401884210D3A06896
:1054000010280DD1607D216B227F41EA403040EAB7
:10541000024040F01C010CE041F0100001256AE060
:10542000607D216B227F41EA4030A168084340EA59
:105430000241207F012806D1206A0022CFF6FE72A9
:1054400002EB40400143606A20B100F47870A26A28
:105450001043014320684CF20303CFF6F073C26897
:105460001A401143C1608168826801F0040102F0B2
:105470000802891830D1217D44F2030CE26AC36826
:1054800042EA813123EA0C021143C16094F83810DA
:105490000129016914D14FF61E02CFF6004201EA3C
:1054A000020C0121D4E90F23CFF6FF7101EB024179
:1054B00043EA0C02636C1143A26C1943114301E0EF
:1054C00021F0010101610169626B21F0704111431A
:1054D00001612046FDF7F4FF2068E1680129026BB5
:1054E00022F00F0102D1A269013A114301630121A7
:1054F000606D61F301006065284602B0B0BD46F200
:105500000802C5F602021268D2073FF45CAF70E7EA
:10551000F0B587B042F2001204460068C4F20202FD
:1055200090424FF00001CDE905110491CDE902113F
:1055300059D042F20001C4F20201884240F0968044
:1055400040F2142144F2E040C2F20041C5F60200EC
:105550000A68002A02F101020A600BD150F8081C07
:1055600041F0200140F8081C50F8081C01F020010F
:10557000019101990168002641F004010160006871
:1055800002A900F00400019001980320CDE9020077
:1055900040F600000496C5F6020001F019FB40F247
:1055A0001C552820C2F20045C4F2020028600920E0
:1055B000C5E901064FF4806028614FF480506861AE
:1055C0004FF48040A8614FF48070EE60C5E9070693
:1055D00028466E6200F014FE08B1FFF7CDFBE564CB
:1055E000AC6307B0F0BD40F2142144F2E040C2F2D7
:1055F0000041C5F602000A68002A02F101020A60B1
:105600000BD150F8081C41F0200140F8081C50F85C
:10561000081C01F0200101910199016840F6000485
:1056200041F0010101600168C5F6020401F00101C9
:1056300001910199016841F004010160006802AD27
:1056400000F004000190019880200290A4F5006011
:105650002946032603960027049701F0B9FA02A908
:105660003020C1C12046294601F0B2FA07B0F0BD92
:105670002DE9F04142F2001746F20835C4F2020764
:10568000036807F50276C5F602050446A7F58070A3
:10569000BB4208BF3546834208BF354628689B6831
:1056A0005B0704D40E4694F85010012902D1022061
:1056B000BDE8F08100F01F050120092D84F850009D
:1056C00056D8A84040F22121084251D020469046A9
:1056D000FEF702F820B1002184F85010BDE8F081F7
:1056E0002168606D40F6017220EA020000F58070CA
:1056F00060650DB1B94203D0606D20F48010606523
:10570000606D43F2D953C0044FF0000044BFA06D58
:1057100020F0060043F25167C0F60003A065C0F612
:105720000007E06C0022C0E90F3743F23963E76AF3
:10573000C0F60003C3641C230B6084F8502043466A
:105740004A6842F010024A60CA6822F003023A43F3
:10575000CA604031324601F063F821684FF6C073E9
:10576000C7F6FF738A681A4004328A60BDE8F08188
:10577000002084F850000120BDE8F0810000000006
:105780002DE9F04381B00021009140F2140104465C
:10579000C2F2004148F2B512C1F64E32A56D096859
:1057A00040F26F490068C4F20209A1FB02184845A3
:1057B0002E682A6815DC9F21C4F2020188422BDC86
:1057C0005721C4F2020188424FDC1021C4F20201C9
:1057D000884278D02821C4F20201884273D0402147
:1057E0006CE045F22F41C5F60201884227DC40F209
:1057F000B741C4F20201884243DC40F27041C4F276
:10580000020188425FD040F28841C4F2020188421E
:1058100059D040F2A04151E040F22741C4F20201C8
:1058200088423DDCA021C4F2020188424BD0B8215D
:10583000C4F20201884246D040F210413EE045F2F7
:105840006B41C5F60201884275DC45F23041C5F670
:105850000201884200F0828045F24441C5F602010F
:1058600088427BD045F2584173E05821C4F20201CE
:10587000884228D07021C4F20201884223D08821B6
:105880001CE040F2B841C4F2020188421BD045F24C
:105890000841C5F60201884260D045F21C4158E03B
:1058A00040F22841C4F2020188420CD040F240414B
:1058B000C4F20201884206D040F25841C4F202010B
:1058C000884240F04E84E16D082201F01F018A40B9
:1058D000324200F0168140F20F43C4F202039842B4
:1058E0004FF0040313DC6F27C4F20207B84200F341
:1058F00091803F27C4F20207B84200F3D2801027FC
:10590000C4F20207B84200F0F0802827E8E04845DA
:1059100000F38C8040F23F47C4F20207B84200F324
:10592000C78040F21047C4F20207B84200F0DD80A1
:1059300040F22847D4E045F26C41C5F602018842A6
:105940000CD045F28041C5F60201884206D045F2EE
:105950009441C5F60201884240F003840368E16D7A
:1059600001F01F01042707FA01F6164218BF13F0D1
:1059700004072CD1022707FA01F6164218BF13F0CC
:10598000020762D1CA40120740F1EB8313F008020C
:1059900000F0E78340F20F42C4F2020290426FF03F
:1059A0001C0200F305836F23C4F20203984200F344
:1059B00024833F23C4F20203984200F36983102337
:1059C000C4F20203984200F0BB832823B2E3190417
:1059D0006E605ED4990600F1D88340F20F41C4F2A4
:1059E000020188426FF0080100F3F5826F22C4F2D1
:1059F0000202904200F30E833F22C4F20202904260
:105A000000F34D831022C4F20202904200F0BA83E8
:105A10002822B1E39F27C4F20207B84251DC702765
:105A2000C4F20207B84260D0882759E040F29F478D
:105A3000C4F20207B8424BDC40F27047C4F20207DE
:105A4000B84252D040F288474AE019046E6000F133
:105A50009B82990600F1CA8340F20F41C4F2020111
:105A600088426FF0140100F3E2826F22C4F2020256
:105A7000904200F31B833F22C4F20202904200F3E3
:105A800087831022C4F20202904200F0A6832822EB
:105A90009DE3D80300F17983A16C002940F0A9832C
:105AA0005FE34027C4F20207B8421ED0582717E030
:105AB00040F24047C4F20207B84216D040F25847BD
:105AC0000EE0A027C4F20207B8420ED0B82707E0C4
:105AD00040F2A047C4F20207B84206D040F2B847ED
